:020000040800F2
:10000000185B002045010008953D000849340008B0
:10001000913D0008773000084947000800000000C3
:100020000000000000000000000000005D3F00082C
:100030007B30000800000000453E00086D440008C9
:100040005F0100085F0100085F0100085F01000810
:100050005F0100085F0100085F0100085F01000800
:100060005F0100085F0100085F0100085F010008F0
:100070005F0100085F0100085F0100085F010008E0
:100080005F0100085F0100085F0100085F010008D0
:100090005F0100085F0100085F0100085F010008C0
:1000A0005F0100085F0100085F0100085F010008B0
:1000B0005F0100085F0100085F0100085F010008A0
:1000C0005F0100085F0100085F0100085F01000890
:1000D0005F0100085F0100085F0100085F01000880
:1000E0007D3000085F0100085F0100085F01000823
:1000F0005F0100085F0100085F0100085F01000860
:100100005F0100085F0100085F0100085F0100084F
:100110005F0100085F0100085F0100085F0100083F
:100120005F0100085F0100085F0100085F0100082F
:10013000DFF80CD002F062FF00480047017C0008A5
:10014000185B00200648804706480047FEE7FEE7A8
:10015000FEE7FEE7FEE7FEE7FEE7FEE7FEE7FEE777
:10016000194500083101000810B5F949C4074FF0DE
:1001700040434FF0804205D08B66CB66C1E91C320C
:100180008A67CA67840709D5C1F80031C1F804310C
:10019000C1E94232C1F81021C1F81421400709D544
:1001A000C1F89831C1F89C31C1E96832C1F8A82181
:1001B000C1F8AC2110BD2DE9F14F82B000210298A9
:1001C0008A468946806F00287DD000220020401C8E
:1001D0000428FCDB02984FF0000C00EBC203D3E9CB
:1001E0000010A1FB0167D3E9065400FB017701FB76
:1001F0000077CDE90067A646AE1B64EB0704AB466B
:100200000327A6FB075804FB078406FB0C44DDE923
:100210000067AD197C41A5FB016704FB017405FB78
:100220000045D3E90C47341B65EB0705CDE90045D4
:100230005D46A5FB05670324A6FB04580EFB0B7760
:100240000BFB0E7707FB048406FB0C44D3E9126317
:10025000761B63EB04034C18A4FB017C40EB000508
:1002600005FB01C504FB0055A7FB014C05FB01C5BF
:1002700007FB0055A4FB017C05FB01C504FB0054F2
:10028000F6196341DDE90045AD0045EA9475A40027
:10029000A4FB017C05FB01C104FB0014F01B73EB04
:1002A000040103D50023404263EB0101BAEB0004D3
:1002B00079EB010301DA82468946521C032A85DB69
:1002C0005046494600E010E002F040FCA149896B2D
:1002D00002F045FA02F08EFC9D4AD2F80C2203B0DF
:1002E0009200BDE8F04F02F04DB9002003B0014686
:1002F000BDE8F08F2DE9F14F0020009A0146926F82
:10030000F2B300240022521C042AFCDB009A02EB08
:10031000C405AA46D5E90029A2FB023CD5E9067628
:100320009E46FB1A0325A3FB057809FB02CC02FBC2
:1003300009CB66EB0B0606FB05854FF0000C03FBB3
:100340000C5617EB0E03A3FB027C46EB0B0606FBD9
:1003500002C203FB0923DAE90C25BA1AAB4103D523
:100360000025524265EB0303851A71EB030501DAA0
:1003700010461946641C032CC4DB02F0E7FB00E0C6
:100380000EE07449896B02F0EAF902F033FC704A1E
:10039000D2F80C22BDE8F84F02EB420202F0F2B8AC
:1003A00000200146BDE8F88F2DE9FE43684D8046E8
:1003B0000024D5F810626F4605EBC4013246D1E93E
:1003C000020102F0D0F805EB8401B1F884100904B1
:1003D000401847F8240004F10104032CECDB5C48CE
:1003E0009821083002F019F90120FFF7BDFE95F8B9
:1003F000E8010199042807D1D5F81802B0F5201FAB
:1004000002DD052085F8E801524C0098636AC11AA4
:1004100001D40E4600E01E1A0198A26A801A01D487
:10042000074601E0019FD71BBE4206DD002901D42B
:10043000084606E00098181A03E0002801D5019844
:10044000101A029AE16A521A01D4134601E0029B83
:10045000CB1A834205DB002A01D4104601E0029842
:10046000081AD8F8241006F0C4FDD5F818128142F5
:1004700006DD0321684607F085FA022007F0EAFA54
:10048000009860620198A0620298E062BDE8FE8375
:10049000304AC2E9020170472E4AC2E9060170479C
:1004A0002C4AC2E904017047294AD2F8E0310360BE
:1004B000D2E97402C1E900027047254AD2F8E0315E
:1004C0000360D2E97602C1E9000270472DE9FE47D8
:1004D00081460020EA468A6F22B901EB800339F990
:1004E0001020DA6701EB800239F91030D46F1D1B40
:1004F0004AF82050136E9D4200DD1566D36E9D4272
:1005000000DAD5660123002422464FEAE578A3FBF2
:10051000056704FB057403FB0844334602EB4206FF
:1005200001EBC60606EBC00CDCE90076FF1866415D
:10053000CCE90076521C042AE9DB401C0328CADB04
:10054000886F401C88670120C1F89000BDE8FE87D5
:1005500058500020B852002030B5002302EB83052C
:1005600050F823405B1CEC66032BF7DBC2F88810C5
:10057000916F79B1002102EB810450F82130E56FD1
:100580005B1B00D55B42256E9D4200DA2366491C49
:100590000329F0DB906F401C90670120C2F89000A7
:1005A00030BD10B500210B4600EB8102491CD46E12
:1005B000D46713660329F7DBD0F8881040F8783F3A
:1005C000C0E9051310BDD0E92210081A7047014692
:1005D000D1E91802824200DB1046896E814200DBBD
:1005E000084670472DE9F0478046501E0126864098
:1005F0008946C2F12007404601F0C4FF04460D467B
:10060000404649463A4601F0AEFF3A4601F0BAFF8D
:10061000B04203DD641C45F1000505E071428842EB
:1006200002DA641E45F1FF3520462946BDE8F08711
:10063000F7490020086248628862C862086448641A
:100640008864C864086348638863C863086548654C
:100650008865C865704730B5EE4AD2F8483223B194
:10066000D2E990542D1A8C4101DAC2E990015B1C49
:10067000C2F8483230BD30B5E64AD2F8583223B11C
:10068000D2E994542D1A8C4101DAC2E994015B1C21
:10069000C2F8583230BD30B5DE4AD2F828322BB11C
:1006A000D2E98845041B71EB050401DAC2E988012F
:1006B0005B1CC2F8283230BD30B5D64AD2F8383289
:1006C0002BB1D2E98C45041B71EB050401DAC2E9B8
:1006D0008C015B1CC2F8383230BD2DE9F047024670
:1006E000CC48012508308046C36E016E046FC91ADC
:1006F000436E1B1B8B4200DB1946836ED8F87400D7
:10070000181A884200DB0146C14F6037F86B8842F7
:1007100004DA002400F00AFA204687E7108E01244C
:10072000BC4EC0054FF000010ED5D6F880303068C1
:10073000834209DBB2F87420D20506D5D6F8B02181
:10074000824201DB052400E00C4674B3600719D532
:10075000AF48C8388146FFF72EFD000D40EA013052
:100760000915C6E97601D7E904321B1A8A4102DA73
:100770000025FFF7A1FF9821484601F04EFF042015
:10078000FFF7F2FCE0070ED04046FFF714FDC6E984
:100790007C01D7E906340246181A8C4103DA002599
:1007A0001046FFF778FF284640E7FFE702203DE7C5
:1007B0001EB5044690F83000C0F38110032804D120
:1007C0009449201D0831FFF781FE94F87400C0F3AE
:1007D0008110032805D18E4904F14800C839FFF77C
:1007E00075FED4F8B8008B4AC0F38113A032694675
:1007F000032B0FD0C0F3411003281AD1002004EBC3
:100800008003D3F8A0309B1341F82030401C03280C
:10081000F5DB09E0002004EB4003B3F98C3041F82C
:100820002030401C0328F6DB6846D4F8C010FFF7E0
:1008300093FE1EBD2DE9F04705460020296BCA0531
:1008400067D501F05001402900D1012095F87410BE
:1008500001F05001402900D1012095F8B8106D4CED
:1008600001F05001402900D030B100F05FF90020C4
:10087000C4F8E00184F8E801654ED4F80812E86A8B
:100880006036814225D0C4F808020A28306B0ADAA3
:1008900040002060716B491CC4F80C1202F048F94A
:1008A00009F04CF804E02060706BC4F80C02B06BE7
:1008B000C4F81402D4F80C02C0F11000C4F81002FD
:1008C0004FF48040C4F8180296F83410192088407C
:1008D000F0632846FFF76CFF94F8E811DFF83491D5
:1008E00005274FF0020809F1A009072911D2DFE816
:1008F00001F0041127305E7E8500D4F8E001411C30
:10090000C4F8E0110A2804DB00F010F9012084F893
:10091000E80186E0D4F89800012810D12846FFF7B6
:10092000DCFE10B1012803D004E084F8E87101E096
:1009300084F8E8814846FFF734FEFFF779FE70E05F
:10094000032084F8E8012846FFF72EFD00F0EEF8BA
:1009500067E02846FFF7C1FEF0B3012861D1B5F882
:10096000B8004FF00403C00515D54846FFF72FFE29
:100970000146C017C4E97410D6E902C2BCEB0101FC
:10098000824102DA84F8E87108E04846FFF71BFE6E
:10099000316A884202D384F8E83124E0F4E9760130
:1009A000FFF769FED4E90601FFF755FE39E0B5F817
:1009B000B800C0050BD54846FFF709FE0146C01731
:1009C000C4E97410D6E90232591A824108DB28467C
:1009D000FFF783FE00B100E002E0012803D020E031
:1009E00084F8E8711DE02846FFF7DEFCD6E7062014
:1009F00084F8E801012007F02DF80DE02846FFF704
:100A00006CFE012801D038B10BE084F8E88108E0E1
:100A1000585200205850002000F088F84846FFF750
:100A2000C0FD002002E610B500214010002802D0D1
:100A300001F10101F9DC454C4FF0010001F1010128
:100A400000FA01F0C4E90C0102F072F808F076FF38
:100A5000A06394F8341019208840E06310BD10B5ED
:100A60004FF418713A4801F0D8FD4021374801F0A1
:100A7000D4FD0720FFF778FB344840F2DC51002218
:100A8000C0E906121421C0E902124FF41671C0E940
:100A9000041230492E4C01620120C4F8E4011920EF
:100AA000FFF7C1FF0020C4F8080210BD10B54FF4D5
:100AB0001871274801F0B1FD0720FFF755FB2448C6
:100AC00001210022C0F8E41180F8E811032101207F
:100AD00006F0B2FF07226421AFF2A720BDE8104064
:100AE00006F058BD10B5012006F0B4FFAFF2BB20F0
:100AF000BDE8104007F022B810B5FFF7B0FF00289E
:100B000005D1AFF25700BDE8104006F007BE10BD9A
:100B100010B5FFF7E7FFAFF26B00BDE8104007F03C
:100B20003FB80B49D1E97C0170477047084810B5C0
:100B30009821083001F071FD9821074801F06DFD02
:100B4000BDE810400520FFF70FBB0000B8520020A1
:100B5000585000200008AF2F905100202DE9FC5F75
:100B60000D460026416B99469246B046002904DBAB
:100B7000D0F8BC00032800D10126FF492422081F19
:100B800001F024FDFC4FC03F0024C7F8E05007EB04
:100B90008400D0F8BC10404601F057FD641C80462C
:100BA0000A2CF4DBF54901F0DAFDF54C80464FF0F4
:100BB000C80BC7F8E400BAF1320F21DB4846C7F88A
:100BC0001CB101F0B5FF00900190EE49284601F0FC
:100BD000C6FD019901F091FD214601F0C0FD0446DA
:100BE000BAF57A7F33DBE8492846009C01F0B7FD6F
:100BF000214601F082FDE24901F0B1FD044626E004
:100C000041F2883199FBF1F04042D7F81C1100EB1A
:100C100080004018C7F81C0102D50020C7F81C014D
:100C2000484601F085FF8246D849284601F097FDE5
:100C3000514601F062FD214601F091FD0446D7F8CE
:100C40001C0120B9D7F82801012800D10024D7F8C9
:100C5000200100B12C46CE49894500D12C4614F024
:100C6000FF4F11D04046C7F8E880414601F03FFDF4
:100C700020F00040C74902F067F822D2D7F8B80048
:100C800010F0FF4F03D01CE0D7F8E800EDE7C6B145
:100C90004846C7F81CB101F06FFF04460E462846CF
:100CA00001F0E8FF0022BC4B01F0BCFE22463346B7
:100CB00001F046FE0022B94B01F0B4FE02F01EF82E
:100CC00004462046BDE8FC9F2DE9F04FABB04FF045
:100CD000000AA94FCDF810A0C03FCDF814A0CDF860
:100CE00018A00446D7F82011022003297DD0002641
:100CF00020AD07EB8600D0F8A80001F019FF6FF0D7
:100D00001D0101F06AFD45F82600761C042EF0DB7B
:100D10000FA805F01BFE24A805F062FE964B24AA3E
:100D2000183B0FA92046279300F0F4F9064604F17A
:100D3000180005F0BDFE82099548D7F8303183428E
:100D400000DB034631462046FFF708FFBB4607F1AC
:100D5000B806D7F8EC1001F0D0FC30600BA805F015
:100D6000F5FD13A90BA806F0A7FB83480FAA3C309A
:100D70000BA9064606F097F931460BA806F078F95C
:100D800000210DF13C080DF14C090DF1100E00226F
:100D90001346104601EB410C0CEB000759F8276095
:100DA00008EB8007401C7F680328C6FB0723F3DBA2
:100DB000900F40EA83004EF82100491C0329E6DB2E
:100DC000DBF820015F4600287DD05046CDF818A002
:100DD000404201F0ADFE6FF01D09494601F0FDFCF7
:100DE00004F0A2FCD046564600E074E0CDE9000ACB
:100DF0000698CDF808A0404201F09AFE494601F05D
:100E0000ECFC08F0D7FC0390D7F8300141F28831B0
:100E100090FBF1F04FF0804A01F08AFE2890299073
:100E2000069801F085FEDFF878B1594601F097FC8D
:100E3000299901F094FC514601F091FC01F0ADFEBE
:100E400040000690DDF8A0A001F072FE594601F0C6
:100E500054FC514601F051FC01F09FFE069001F058
:100E600067FE494601F0B9FC04F05EFCCDE90706D7
:100E70000996069801F05CFE494601F0AEFC08F0C8
:100E800099FC0A901CAA694620A806F065F96A46F2
:100E900007A91CA806F060F9D4F8BC00EA460028AF
:100EA00010DD00261E215AF8260045F8260001F024
:100EB00094FC01F072FE07EB8601761CC1F8A800D5
:100EC000042EEFDB00E00BE0D4F8BC004FF0FF3560
:100ED00003280AD106E0C7F820012BB0BDE8F08F47
:100EE000069875E701F007FBF0B357F8A80F01F07B
:100EF0001FFE4E46494601F070FC1C90786801F0D8
:100F000017FE314601F069FC1D90B86801F010FE33
:100F1000314601F062FC1E90F86801F009FE31468E
:100F200001F05BFC1F90B86FA83F0028D5D0D7F820
:100F3000B8002946A83701F050FC04F0F5FB1E214B
:100F400001F04BFC01F029FEC7E90008C7F8088052
:100F50002946386901F041FC08F02CFC1E2101F003
:100F60003CFC01F01AFE00E01CE0F860D4F8C01070
:100F7000A83F279844E00000B8530020000020411B
:100F800000409C4500004843000048420000C84320
:100F900040420F000E2DB23D000079400088B34062
:100FA000E10237472946D7F8B80001F016FC04F0F3
:100FB000BBFBCDE90708CDF824802946D7F8B80057
:100FC00001F00BFC08F0F6FB0A906A4607A920A87E
:100FD00006F0C2F8684606F08FF9002556461E2135
:100FE00056F8250001F0F9FB01F0D7FD07EB85016C
:100FF0006D1CC1F8A800042DF1DBD4F8C0102798AF
:1010000006F018FCD7F8200100288FD0401E62E7B8
:1010100070B590F8B810664ACC064FF000034FF058
:10102000030101D4C2E94813B0F82041E40509D412
:10103000048EE40503D5B0F87440E40502D4C2E997
:1010400048131AE0D2F8341139B1D0E93013C91A73
:101050004FF47A73B1FBF3F105E0D0F8B01044F629
:101060002064A14202DBC2F830110AE0D2F82C5110
:101070002944C2F82C11A14201DA002070BDC2E956
:101080004B31FFF721FEF8E710B54FF49C7148484B
:1010900001F0C3FA464C4FF080400021C4F8FC0038
:1010A00044F8A80F4248A83006F0C4FB4FF47A7009
:1010B00060674FF07E50606410BD3D49C1F8EC00A0
:1010C000002070473A49C1F828010020704738498C
:1010D000C1F834010020704704224FF41671AFF2BA
:1010E000CF0006F057BAAFF2D70006F027BD10B513
:1010F000FFF7CAFF2E490020C1F82801C1F83401CA
:10110000AFF22B00BDE8104006F008BBAFF237008D
:1011100006F046BD2DE9FF470C4625491546074612
:1011200099463C220C31224801F050FA20495022C5
:101130005831A1F1100001F049FA1D4E95E8070061
:1011400006F13C031B4D83E807001ECC06F1980016
:1011500080E81E00D6F82401401CC6F824010628A9
:1011600002DD0620C6F82401C0F1060407F1A0083C
:1011700018E006EB04116A464846483105F093FF33
:1011800004EB440006EB80016A46404605F00AFA8B
:10119000074625F0004120F0004001F0CBFD00D2D1
:1011A0003D46641C062CE4DB04B02846BDE8F0870D
:1011B000F8520020002474491FB5014610226846E9
:1011C00001F004FAF6489DE80E0080E80E00F549AB
:1011D0009DF80C0081F8B001002004B010BD1FB5CF
:1011E000EF490EC98DE80E00EE49102291F8B011BA
:1011F0008DF80C10694601F0E9F90020EDE72DE9C2
:10120000F04F91B000251821684601F006FA00243D
:10121000182106A801F001FAE249A046C14691F85A
:10122000C00101287ED1D1F8B8B1D1F8B4A1002213
:10123000C2EBC20000EB4001DA4800EB810E9EF8E1
:1012400050000F90002863D000215EE05EF821304E
:10125000DDE900676D1CD8170E939B197841CDE925
:1012600000300EEB8100EDB243690D93DDE9027CA5
:10127000DE17DB1946EB0C06CDE90236836ADDE9A1
:10128000047CDE170C93DB1946EB0C06CDE9043623
:10129000C06B0E9BDDE9067C83FB0063360C46EADF
:1012A0000346F6194CEB2343CDE906630D9BDDE9BC
:1012B000087C83FB00634FEA164646EA0346F619AC
:1012C0004CEB2343CDE908630C9BDDE90A7C83FBEF
:1012D00000634FEA164646EA0346F6194CEB2343F1
:1012E000CDE90A6380FB00634FEA164646EA0346EF
:1012F00016EB080849EB23490444584501DA8346B4
:1013000002E0504500DD8246491C0F9888429DDC72
:10131000521C052A8CDBA348AAEB0B01D0F8BC01B8
:10132000814200E053E052DBA5FB0872E017002683
:101330000F9006FB082005FB09000E9084FB0410AB
:10134000090C41EA00410014CDE90C0106A800EBAC
:10135000C601D1E90002A0FB05BC02FB05C20021C9
:1013600000FB012C684600EBC601D1E90002A0FB9E
:10137000043802FB04820F9900FB0120190C0CAA0F
:1013800041EA00494FEA204A92E80B0087EA01024D
:1013900083EA000852EA080212D07A1A63EB0003CB
:1013A000BBEB09006CEB0A0C4FEA0C4141EA10411F
:1013B000000401F0A7F87B4901EB8601C1F8A40104
:1013C000761C032EC2DB7748012180F8B01111B0E2
:1013D0000020BDE8F08FF8B5724D0E460446D5E901
:1013E0006D01091A052291FBF2F1301A90FBF1F020
:1013F000C0B28DF80000042801D92020F8BDC0EB50
:10140000C00000EB400005EB800191F8500005287A
:1014100016D0421C81F850209DF80010C1EBC1018C
:1014200001EB410105EB810202EB8001CE632368F1
:1014300042F8203060684861A06888620020F8BDEA
:1014400001F14003181F1022194601F0BFF89DF862
:1014500000001022C0EBC00000EB400005EB800054
:10146000011D01F0B3F89DF800001022C0EBC00090
:1014700000EB400005EB800000F11801143001F092
:10148000A5F89DF800001022C0EBC00000EB400062
:1014900005EB800000F12C01283001F097F80420C2
:1014A000BAE730B585B0044603A9684605F0D6FA18
:1014B00004A805F073FB02282BD0D4F8E4000399AC
:1014C000401A384991F8B02112B308B3D1F8A421D9
:1014D000009C80FB0232150445EA1342224400922C
:1014E000D1F8A821019C80FB0232150445EA134281
:1014F00022440192D1F8AC11029A80FB011003043E
:1015000043EA1140104402900321684606F03AFA7B
:101510000CE0606B032809D105F0B2FA30B16846DF
:101520000399FFF758FF08B9FFF769FE05B00020DF
:1015300030BD10B54FF4E2711A4801F06EF8194849
:101540001949C0F8B4114FF4AA01C0F8B8114FF40A
:10155000A021C0F8BC11012180F8C011002010BDED
:101560001049C1F8B801002070470E49C1F8B40114
:10157000002070470B49C1F8BC010020704758B1EA
:101580000849D1F8A4210260D1F8A8214260D1F81D
:10159000AC118160002070470520704724207047FF
:1015A000D4550020305400200000D8FF20B12D4930
:1015B00081F8C0010020704724207047294B93F820
:1015C000B101002818D0D3E96D10401A052190FB15
:1015D000F1F00020C0EBC00101EB410103EB810100
:1015E00091F8502022B1002100E0491C8A42FCDC25
:1015F000401C0528EEDB00207047082296211A487F
:1016000005F0C8BF184806F099BA10B5FFF791FF6A
:101610004FF49A7310221549154806F037F820B98F
:10162000AFF2290006F07AF808B1012010BD0D498B
:10163000012081F8B101002010BD10B5094C94F8CB
:10164000B101002808D0084806F078FAAFF255003A
:1016500006F0A6FA08B1012010BD002084F8B101FF
:1016600010BD000030540020A3140008DF11000852
:10167000B91100082DE9F043044699B01D46914682
:101680000E46806801F054FA014601F036F88046B3
:10169000606801F04DFA014601F02FF80746206816
:1016A00001F046FA014601F028F8394600F0CDFF76
:1016B000414600F0CAFF08F041F9074620F000401B
:1016C0004FF08D4101F040FB7ED2306801F030FADE
:1016D0006FF01D08414601F080F80490706801F039
:1016E00027FA414601F079F80590B06801F020FA38
:1016F000414601F072F80690F06801F019FA41468F
:1017000001F06BF800260C960790206801F010FAA3
:10171000394601F024F80D90606801F009FA394665
:1017200001F01DF80E90A06801F002FA394601F0B0
:1017300016F80F9010AA0CA904A805F00DFD14A925
:1017400004A805F0A1FC6A4614A910A805F004FD40
:101750000199084600F0D1FF02990446084600F0BE
:10176000CCFF214600F071FFFE49884201DAFE4CB1
:101770000BE0FE49884201DAFD4C06E0FD49884253
:1017800002DA4FF07A5400E0FB4C484601F0D0F901
:10179000FA4900F0E4FF214600F0AFFF0446089646
:1017A0002146029800F0A9FF09900198214680F097
:1017B000004000F0A2FFCDE90A066A4604A908A885
:1017C00005F0CAFC6A4600E025E004A9104605F0D1
:1017D00036FC684605F047FD1E21009800F0FDFF2D
:1017E00001F0DBF928601E21019800F0F6FF01F0FE
:1017F000D4F968601E21029800F0EFFF01F0CDF9E6
:10180000A8601E21039800F0E8FF01F0C6F9E86027
:1018100019B0BDE8F08396E80F0085E80F00F7E700
:101820002DE9F05F05460C46806801F081F901461C
:1018300000F063FF0746686801F07AF9014600F09E
:101840005CFF0646286801F073F9014600F055FF79
:10185000314600F0FAFE394600F0F7FE08F06EF867
:101860004FF07E59002706464FF08048484505DC7A
:10187000C4E90087A760E760BDE8F09FA86801F0B1
:1018800057F9314600F06BFF82460146484600F0AA
:101890002EFF4FF40006B04200DA00204FF0FF3177
:1018A00000F09BFF08F04AF883464946504600F096
:1018B000CCFEB04200DA00204FF0FF3100F08DFF87
:1018C00008F03CF88246686801F032F9014600F001
:1018D00014FF0646286801F02BF9014600F00DFFC1
:1018E000314600F0B2FE08F029F806464845BFDD53
:1018F0001E21504600F071FF01F04FF9206068682A
:1019000001F016F9314600F02AFF594600F0F5FEC5
:101910001E2100F062FF01F040F96060286801F0CC
:1019200007F9314600F01BFF594600F0E6FE9449E6
:1019300000F0E3FE01F031F9C4E902079CE72DE96C
:10194000F04105460C46C06801F0F2F8014600F08F
:10195000D4FE8046A86801F0EBF8014600F0CDFE09
:101960000746686801F0E4F8014600F0C6FE064646
:10197000286801F0DDF8014600F0BFFE314600F0B6
:1019800064FE394600F061FE414600F05EFEB0F5AF
:10199000000F06DA4FF08040206000206060A060F9
:1019A0002DE007F0CBFF01464FF07E5000F0D7FE50
:1019B0001E2100F012FF0646286801F0B9F83146F2
:1019C00000F09BFE01F0E9F82060686801F0B0F8D3
:1019D000314600F092FE01F0E0F86060A86801F086
:1019E000A7F8314600F089FE01F0D7F8A060E8685A
:1019F00001F09EF8314600F080FE01F0CEF8E06084
:101A0000BDE8F08170B5044690F8300088B040061B
:101A100076D5A069002801DB014600E041424FF481
:101A200080320026574D91420BDAE169002900DA35
:101A30004942914205DA216A002900DA494291427D
:101A400060DB002800DA40424FF4C80188420BDC1A
:101A5000E069002800DA4042884205DC206A00285C
:101A600000DA4042884201DD032000E00220A86342
:101A7000696BA06A814219D06863A06A01F058F8C6
:101A8000414900F06CFE1D2100F0A7FE01F0F2F8C4
:101A90003E4A3F4B00F054FF082201F032F800228A
:101AA0003C4B00F0BFFF01F0C6F828630496296B99
:101AB000A06905F09EFA0590296BE06905F099FA96
:101AC0000690296B206A05F094FA07906A4604A9EB
:101AD0002C4805F0E8FA00982A4A80010090019805
:101AE000694680010190029880010290039880016C
:101AF0000390104605F091FA22490846FFF71FFFB0
:101B000008B070BDAE63FBE72DE9F0430446D0F8A2
:101B100020018FB041067CD51A4DD4F810111E4B10
:101B20002A68891AD4F82C215A438A4201DA0321FF
:101B300000E00221A963810504F58870804601D583
:101B40001049D4E0002104A804F088FF0D490C22BC
:101B50003C3104A800F06CFD08BBD4F82801A96D45
:101B600088421BE017B75139A69BC43B0AD7233CD8
:101B70008FC2753DCDCC4C3ECDCCCC3E0014CD4774
:101B8000000080CEF455002000247449112D4454E7
:101B9000FB2109400080664071981C007ED020889F
:101BA00007AB80B204AA616A04F056FD099800F000
:101BB000BFFF014600F0A1FD0746089800F0B8FFFE
:101BC000014600F09AFD0646079800F0B1FF014675
:101BD00000F093FD314600F038FD394600F035FD48
:101BE00007F0ACFE0646E84900F087FDE74900F043
:101BF000B6FD6FF00F0100F0F0FD0746D4F82801A4
:101C000000F096FF394600F078FDE14900F0A7FDAD
:101C100000E06EE04FF0FF3100F0DFFD074603F01B
:101C200083FD8146384607F0C5FD07464FF08040EA
:101C3000864204DAA8640020E864286533E01E21A7
:101C4000484600F0CAFD00F0A8FFA864079800F01D
:101C50006FFF8146CF49384600F04FFD07464946A1
:101C600000F04BFD314600F07AFD00F096FFE8648D
:101C7000089800F05DFF0146384600F03EFD314611
:101C800000F06DFD00F089FF2865099800F050FF15
:101C90000146384600F031FD314600E00EE000F02C
:101CA0005EFD00F07AFF04AB686593E8070005F17C
:101CB0003C0383E80700D4F82801A8656A46B649C2
:101CC000404605F0F0F9B4480AAA143069460446C3
:101CD00005F0E9F92146404605F0CAF9AE486A46E2
:101CE0000AA9483805F0DFF9AB4968464839FFF7DB
:101CF00026FE0FB08DE51FB50446A7486946483853
:101D000005F0B6F9A44A6946283A204605F0CBF911
:101D1000A1491DCC383981E81D001FBD2DE9F047D0
:101D20009D4E0446483E90F8740006F15C0A06F1A8
:101D30002008012500F05001103692B004F5887992
:101D400004F15C07402906D094F8200100F050000F
:101D500040280DD01EE031463846FFF761FDB4F84B
:101D60002001C0050CD55146484605F081F907E031
:101D70005146484605F07CF9B4F87400C00509D511
:101D800085486946483805F073F942466946304649
:101D900005F089F9B4F82001C005204602D5FFF707
:101DA000B3FE01E0FFF72EFE7B493246483940463C
:101DB00005F079F994F87400400671D5208EB4F8D6
:101DC00020110843C00578D50FAA3946304605F0E2
:101DD0004AFBD4E9172080FB0001C2FB0201626EBE
:101DE0006D4FC2FB0201483F4FF08042801A71F1F3
:101DF000020014DB04A804F09DFEDDE9042080FB52
:101E00000001C2FB0201069AC2FB02014FF08042B0
:101E1000801A71F1020002DB0420B8630BE0B86B9A
:101E2000042808D041F28832022806D0032804D0C2
:101E300001283AD009E0002507E0E16E91FBF2F5B8
:101E4000012D00DA0125032800D0AD0053480024FD
:101E50004543109807948002294605F0CAF8089077
:101E60000F9829464042800205F0C3F8CDE90904E5
:101E70000BAA314607A805F016F932460BA9104601
:101E800005F0CBF831460846FFF759FD4248694650
:101E9000483805F0EDF842466946304605F003F94A
:101EA00012B00020BDE8F08707E0E06E90FBF2F092
:101EB000012800DA01204500C7E7334619463846B5
:101EC000E26EFFF7D7FBE1E770B50446008EC1056F
:101ED000D4F8200107D4B4F87410C90503D4C1059F
:101EE00001D4002070BDC0F30120032808D0204693
:101EF000FFF714FF2848A16B383805F00DFEF0E716
:101F000004F5887124482EC9383880E82E00F1E79E
:101F1000234805F013BE204810B56C21483800F066
:101F20007CFB1D484FF0804148380161016001622F
:101F3000C163C165002010BD1D4810B5082219A15C
:101F4000006800F075FB08B1322010BD1322BDE817
:101F50001040C821124805F01DBB10B5FFF7DBFF8C
:101F6000002805D1AFF22F00BDE8104005F0D6BB28
:101F700010BD10B50A4805F0E1FDAFF24300BDE821
:101F8000104005F00DBE0000DB0F49400000344357
:101F900000247449000080CE3C560020A69BC4005B
:101FA000C91E0008654D504C20352E310000000040
:101FB000C8010020002803DDFE490122C1E92002FA
:101FC0000020704710B5B821FA4800F026FBF94808
:101FD000F949C160F9498160F9490160F9494160F5
:101FE0004FF0804141664FF4FA61C167F649C0F88D
:101FF0009C10002010BD2DE9F041EE4C0E46074626
:102000000025216800F0A0FE11D33846616800F079
:1020100091FE0CD32069012813D13046E16800F00D
:1020200093FE04D33046A16800F084FE09D2606FAD
:1020300020B9E048A16D183005F0FCFB0120C4E98F
:102040001D05D4E91E01884204DB606F012800D120
:10205000E5656567BDE8F08170B50C46054604F09E
:1020600081FCD44A002110B9D848854202DD1161B3
:10207000516102E01069002808D150692044506184
:10208000B0F5FA7F02DD0120C2E9040170BDF0B5B0
:102090008DB00D4614460646694605F00DFA09AAAC
:1020A0003146284604F0FFFF2946304604F0E0FFA1
:1020B0000021EC460DF1240E00231A46184601EBD0
:1020C00041073D180EEB80065CF825507668401CF1
:1020D000C5FB06320328F4DB980F40EA820044F87F
:1020E0002100491C0329E7DB0DB0F0BDB1490020F8
:1020F000C1F88C00704770B50446806800F018FD88
:10210000014600F0FAFA0546606800F011FD01464C
:1021100000F0F3FA0646206800F00AFD014600F0E0
:10212000ECFA314600F091FA294600F08EFA07F0F9
:1021300005FCBDE870406FF00F0100F04EBB70B5BC
:102140000E4600259B4C012130B101280CD0C4F86B
:10215000981044F88C5F29E0C4F8A060C4E92965B0
:10216000E4E92415A56070BD3046D4F8A01000F055
:10217000BEFA20F00040D4F89C1000F0DBFD13D232
:1021800054F8945F31466D1C2560206900F05DFABB
:102190002061943C312DE6DD022144F8901F8C49EA
:1021A00000F0DDFAA06170BD44F8905F656070BD1D
:1021B0002DE9FF4F8BB000267E4C05460396049612
:1021C0000596D4F888009346374600287ED004F060
:1021D00067FC10B103A804F033FCD4F88000A146DA
:1021E000002819DD01204C46C9F8840004F058FC91
:1021F00048B103A804F05CFC8009B0F5C87F02D2A6
:10220000D4F8800004E0D4F88000401BC4F88000BB
:10221000002801DCC4F8847004F022FE002855D0A8
:1022200000240E9850F8240000F082FC82465BF8EF
:10223000240000F07DFC6FF00F08414600F0CDFA5D
:10224000514600F05AFA414600F0C7FA314600F014
:10225000FCF9641C0646032CE3DB5846FFF74BFFF2
:1022600001460690304600F07AFA4FF07E58DFF8CB
:1022700064A1404501DD404602E0504500D950468A
:1022800003F04EF88346D9F88C004E4670B13168A1
:10229000069800F04FFD09D27168069800F054FDD1
:1022A00004D25946D6F89000FFF749FF684604F07B
:1022B0005FFC40490C22AC31684600F0B9F918B90E
:1022C000D6F8980001286CD13A4800E0C6E09DE8B5
:1022D0000E00AC3080E80E00009818B9019808B9DB
:1022E000029858B36846FFF706FF044610F0FF4F08
:1022F00057D0DFF8E4902046494600F0F8F901464F
:1023000000F0FBF907F01AFB70604946204600F028
:102310009CF9014600F0F1F907F010FB30600298DB
:1023200000F006FC6FF00F0100F057FA214600F0B4
:1023300016FA044640451FDD444620E02048306040
:1023400020487060D6F89800012804D01B48B0607F
:102350001948F06025E0D6F89C80D6F8A8404146A0
:10236000204600F0C4F9B0604146204600F06DF907
:10237000C6F89870F06014E0544500D954462046E1
:1023800002F0CEFFD6F89C1000F0B1F9B060204604
:1023900002F0C6FFD6F89C1000F057F9C6F88C7012
:1023A000F060DFF81080F16D08F1580801BB0120E2
:1023B000002413E0605600200000B4420000B4C2C4
:1023C000000070420000F0417B142E3E00401C468D
:1023D00000004842000080BF00002041F06506EB8D
:1023E00004104146183004F0E7FA641C042CF6DBB4
:1023F000434907AA0C460C98FFF749FE21460C9862
:1024000004F036FE03A804F053FB00F09AFB6FF0D3
:10241000050100F0E2F92946FFF71EFE594606982D
:10242000FFF7E9FDD6E91E01884201DA2844B067CA
:10243000706F90B9306E28443066B0F57A7F0CDD4D
:102440002F4930223C39A1F11000376600F0BEF868
:102450002B4841461C3804F0AFFA706F0FB0BDE84E
:10246000F08F70B588B0044604A804F0B9FAD4E936
:102470003001451A684604F069FA064604AB04F1D7
:10248000A00269462846FFF793FE05F0E5F908B07B
:10249000304670BD04224FF49671AFF2390005F05A
:1024A00079B8AFF2410005F049BB10B5FFF78AFDDE
:1024B00000280DD1124800216438C0F88C10012189
:1024C000C0F88810AFF23300BDE8104005F026B91F
:1024D00010BD10B5AFF2750005F030FBAFF27D0016
:1024E000BDE8104005F02ABB054901206439C1F858
:1024F0008C000020704702486438406F704700002D
:10250000C45600202DE9F0410024061B254671F138
:10251000000605DA01240027D0EB070067EB010174
:10252000161E73F1000605DA0027D2EB070201251B
:1025300067EB030300F028FC86460E4617469C46D0
:10254000AC4204D00025D0EB050E65EB010624B1AA
:102550000020D2EB000760EB030C704631463A4690
:102560006346BDE8F081202A04DB203A00FA02F13C
:10257000002070479140C2F1200320FA03F3194371
:1025800090407047202A06DBCB17203A41FA02F030
:1025900043EAE07306E041FA02F3D040C2F12002C0
:1025A00091400843194670470649074A0868504356
:1025B00043F239021044086040087047014908603E
:1025C00070470000700200206D4EC64110B5431ADE
:1025D000934209D28318881803E010F8011D03F80C
:1025E000011D521EF9D210BD40EA01039B0703D022
:1025F00009E008C9121F08C0042AFAD203E011F842
:10260000013B00F8013B521EF9D210BDD2B201E0ED
:1026100000F8012B491EFBD270470022F6E710B5E7
:1026200013460A4604461946FFF7F0FF204610BD40
:1026300030B504460020034600E05B1C934203D201
:10264000E05CCD5C401BF8D030BDF0B480EA010204
:10265000D40F4200B2EB410F02D2024608461146A7
:102660004A0042D0C30DDDB2C1F3C752AD1A202DCE
:1026700035DAC1F3160141F4000204B15242C5F14A
:10268000200602FA06F12A411044B3EBD05F23D0B2
:10269000C4B1012DA0EBC35009DCF0BC4FF00042E7
:1026A00002EAC352DBB200F5000000F0B7BB400005
:1026B00000F1807000EBC350A0F1807040EAD1704F
:1026C000490009E0490841EAC071A0EBC35000F598
:1026D0000000400800EBC350F0BC00F096BB614224
:1026E000012202EB4101001BF6E7F0BC704781F0CC
:1026F0000041AAE780F00040A7E780EA010210B598
:1027000002F00043400022D04A001FD0010E01EB2E
:102710001261C0F35600C2F3560240F4000042F4C6
:102720000002A0FB022000047F39140400D0401CEA
:1027300050EA124001D44000491EC2B20C0604EB1C
:10274000D010401C4008802A02D003E0002010BDB9
:1027500020F00100002900DA0020184310BD30B439
:1027600080EA010202F0004530F0004221F0004012
:1027700013D090B1C30DD40DC2F31601C0F31600EF
:10278000E41A41F4000140F400027D34914201D387
:10279000641C00E04900002C02DA30BC00207047C5
:1027A0004FF400000023914201D3891A03434008EB
:1027B0004FEA4101F7D151B1914202D14FF00041AE
:1027C00005E002D24FF0010101E06FF0010103EBDF
:1027D000C450284430BC00F018BB420005D0C0F300
:1027E000C7525242914201DC0020704700EBC150B9
:1027F00070472DE9FE4F804681EA0300C00F0C466A
:10280000009021F0004123F00045B8EB0200A941FF
:1028100005D24046214690461C460B46024623F010
:102820000040104347D0270DC7F30A00C3F30A51F5
:102830000290401A019040286BDAC3F3130040F471
:10284000801B0098924620B10023D2EB030A63EB71
:102850000B0B01985946C0F140025046FFF783FE2A
:1028600006460D4650465946019AFFF78BFE10EB7F
:1028700008006141002487EA115284EAE7731A4391
:1028800040D0009A62B3019A012A4FEA075215DC40
:10289000001B61EB02014FF0004202EA0752CDE952
:1028A0000042001C41F5801132462B4600F040FBEF
:1028B00003B0BDE8F08F40462146F9E7001B61EB0D
:1028C0000201001C41F5801300185B412018A2F59D
:1028D000001747EB030140EAD570B6196D4111E0CE
:1028E0006D084FEA360645EAC0754FEA0752001BED
:1028F00061EB0201001C41F5801149084FEA3000EC
:102900000019514132462B4603B0BDE8F04F00F0AC
:1029100000BB0098012240000023D0EB020263EBD1
:10292000E073009821464FEAE074B8EB000061EBD9
:102930000401E9E783F000435BE781F0004158E7D9
:102940002DE9FE4F81EA030404F0004421F0004128
:1029500000944FF0000B23F0004350EA01045ED0D6
:1029600052EA03045BD0C3F30A54C1F30A552C4462
:10297000A4F2F3340194A0FB0254C1F3130141F417
:102980008011C3F3130343F4801301FB024400FBE3
:10299000034E840A970A44EA815447EA8357A4FB0A
:1029A000076802958D0A05FB07854FEA932C04FB07
:1029B0000C542705029D4FEA065847EA1637B5EB37
:1029C00008056EEB070C870E920E47EA811742EA64
:1029D0008312A7FB0201B6EB0B0164EB00042B0D85
:1029E00043EA0C335E1844EB1C50DA465146E7FBD1
:1029F0000201C5F313044FEA0B3343EA14534FEAC1
:102A00000432019C43EA0603A4F10C040294009CE6
:102A1000CDE900B400F08CFA03B0BDE8F08F0020DF
:102A20000146F9E72DE9F04D81EA030404F0004B7B
:102A300021F0004514464FF0000A23F0004150EA0F
:102A4000050220D054EA01021DD0C5F30A57024600
:102A5000C5F31303C1F31300C1F30A5640F4801504
:102A600043F48013A7EB0608101BD64608F2FD3886
:102A700073EB050002D308F1010801E092185B41F5
:102A8000B8F1000F03DA00200146BDE8F08D002008
:102A90004FF48011064684460EE0171B73EB0507C2
:102AA00005D3121B63EB050306434CEA010C4908EE
:102AB0004FEA300092185B4150EA0107EDD152EA2B
:102AC000030012D082EA040083EA0501084305D01E
:102AD000101BAB4106D20122002306E000224FF07A
:102AE000004302E06FF0010253101AEB06004CEBBA
:102AF000085110EB0A0041EB0B01BDE8F04D00F06E
:102B000008BA70B521F0004303430CD0C1F30A5555
:102B10000024D5EB040564EB0403D617AD1AB341CA
:102B200002DB0020014670BD201841EB025170BD50
:102B3000C10F80EAE0700844CA079623002100F024
:102B40006DB996230022114600F068B9F0B4CA1797
:102B5000CB0F50405140C61841F100054FEAC372F7
:102B6000314628004FF0960303D0B623F0BC00F0A6
:102B700055B930460021F9E70EB5C10F80EAE07083
:102B80000844CA07002140F233438DE80E000A468C
:102B90000B4600F0CDF903B000BD00F0004220F07C
:102BA0000040C10DC0F3160040F400007F2901DA97
:102BB00000207047962903DCC1F19601C84001E06E
:102BC00096398840002AF4D04042704720F00040F7
:102BD000C10DC0F3160040F400007F2901DA002087
:102BE0007047962903DCC1F19601C84070479639B9
:102BF0008840704710B500F0004420F00040C20D3E
:102C0000C0F3160040F400007F2A02DA00200146DB
:102C100010BD0021962A03DCC2F19602D04002E0EA
:102C2000963AFFF7A0FC002CF2D00023D0EB030073
:102C300063EB010110BD70B5C1F30A5201F000450C
:102C40000024C1F3130140F2FF3341F480119A4292
:102C500001DA002070BD40F233439A42A2F23342BF
:102C600003DC524200F0C1F800E090402C43F1D068
:102C7000404270BD00F0004230F000400AD0C10D6B
:102C800001F56071C0F3160042EA0151C208400725
:102C900011437047002001467047000030B5041E04
:102CA00071F1000404DB4FF00044404264EB010189
:102CB000141E73F1000405DB1C464FF00043524222
:102CC00063EB04038B4208BF824230BD30B5041E63
:102CD00071F1000404DB4FF00044404264EB010159
:102CE000141E73F1000405DB1C464FF000435242F2
:102CF00063EB0403994208BF904230BD01F00043EA
:102D000030B421F0004150EA010206D00A0DA2F5CC
:102D10006072C1F31301002A02DC30BC002070474E
:102D2000440F44EAC104C100E01830BC00EBC250BB
:102D300000F06BB8002801DBC0F10040002901DB86
:102D4000C1F1004181427047002801DBC0F1004021
:102D5000002901DBC1F100418842704730B50B46C4
:102D6000014600202022012409E021FA02F59D42BB
:102D700005D303FA02F5491B04FA02F52844151E8F
:102D8000A2F10102F1DC30BD2DE9F05F0546002023
:102D900092469B4688460646814640241BE02846CC
:102DA00041464746224600F020F853465A46C01A8C
:102DB000914110D3114618462246FFF7D4FB2D1A35
:102DC00067EB01084F46224601200021FFF7CBFBAD
:102DD00017EB00094E41201EA4F10104DFDC484638
:102DE00031462A464346BDE8F09F202A04DB203ABC
:102DF00021FA02F00021704721FA02F3D040C2F11B
:102E0000200291400843194670470029A8BF704727
:102E1000401C490008BF20F00100704710B4B0FA10
:102E200080FC00FA0CF050EA010404BF10BC7047AB
:102E300049B1CCF1200421FA04F411FA0CF118BFC5
:102E4000012121430843A3EB0C01CB1D4FEA006194
:102E50004FEA102042BF002010BC704700EBC35067
:102E600010440029A4BF10BC7047401C490008BF93
:102E700020F0010010BC7047F0B4002802DCF0BC68
:102E800000207047C0F3C751C0F3160040F40000A3
:102E9000CA0701D14000491E3F2202EB6105002212
:102EA00011464FF4000626FA01F31344D418844265
:102EB00001D8001B1A464000491C1729F3DD5100B8
:102EC000814202D24FF0FF3100E0002102EBC550F9
:102ED000F0BCFFF79ABF10B541000CD0C0F3C7514A
:102EE000962908DC7E2909DC06DB410204D000F0CB
:102EF000004040F07E5010BD002010BDC1F196048E
:102F0000C4F1200100FA01F1E040FFF77EFFA0408C
:102F100010BD10B5141E73F1000408DA401C41F115
:102F2000000192185B411A4301D120F0010010BD4D
:102F30002DE9F04D92469B4611B1B1FA81F202E0C3
:102F4000B0FA80F220329046FFF70DFB04460F46A0
:102F500040EA0A0041EA0B0153465A46084313D09F
:102F6000114653EA010019D0C8F140025046FFF75C
:102F70003CFF05460E46504659464246FFF7F3FAD7
:102F8000084305D0012004E020463946BDE8F08D15
:102F90000020054346EAE0762C4337430A98630550
:102FA000E40AA0EB08000022FD0A44EA47540A3074
:102FB00002D500200146E9E7010510196941DDE964
:102FC000084500196941BDE8F04DA2E7C1F30A5276
:102FD000C1F3130140F2FF3341F480119A4202DA47
:102FE00000200146704740F233439A42A2F2334236
:102FF00002DC5242FFF7F9BEFFF7B5BA064C074DA7
:1030000006E0E06840F0010394E8070098471034B8
:10301000AC42F6D3FDF790F864E2000884E20008C1
:1030200070B58C1810F8015B15F0070301D110F88A
:10303000013B2A1106D110F8012B03E010F8016BB7
:1030400001F8016B5B1EF9D12B0705D40023521E3A
:103050000DD401F8013BFAE710F8013BCB1A921CA2
:1030600003E013F8015B01F8015B521EF9D5A142A0
:10307000D8D3002070BD00BFFEE7704710B54FF4F5
:10308000006000F00FF828B103F0B2F94FF40060CF
:1030900000F002F810BD0000014908607047000010
:1030A00014040140014600200022074B1B6803EA7C
:1030B0000102054B14331B680B4013B10AB1012008
:1030C00000E0002070470000000401400021234977
:1030D0008279002A3AD00A46126803689A430B465E
:1030E0001A600A1D126803689A430B1D1A60027960
:1030F00011440A6803681A430A60184A08321268C1
:1031000003689A43154B08331A601A1D1268036846
:103110009A43124B0C331A604279102A0ED11A1FAF
:10312000126803681A430D4B08331A601A1D12689F
:1031300003681A43094B0C331A600DE007494279C2
:1031400011440A6803681A430A6005E002791144D1
:103150000A6803689A430A6070470000000401404F
:103160000EB50121042000F07FFE00F014FE4FF4A4
:103170000060ADF8080004208DF80B0002A90B4890
:1031800000F0C4F80B21002000F0A0F84FF400601C
:10319000009000208DF8040008208DF80500012023
:1031A0008DF806006846FFF791FF0EBD000801404C
:1031B00051B18200A2F1C042126842F001038200C4
:1031C000A2F1C042136009E08200A2F1C04212687D
:1031D000034B1A408300A3F1C0431A6070470000FC
:1031E000FEFF0F00D0E901121143C26811430269CA
:1031F00011434269114382691143C2691143026A52
:103200001143426A1143826A1143C26A1143026B3D
:10321000114302689200A2F1C0421160816808293E
:103220000BD101688900A1F1C041096841F0400259
:1032300001688900A1F1C0410A60416B0968426BD5
:10324000526841EA0211426B926841EA0221426BE4
:10325000928941EA0241426B128A41EA0251426B71
:10326000127D41EA0261426B926911430268521C6D
:103270009200A2F1C0421160C16AB1F5804F1BD12A
:10328000816B0968826B526841EA0211826B926815
:1032900041EA0221826B128A41EA0251826B127D5D
:1032A00041EA0261826B9269114302689200A2F1C5
:1032B000C042C2F8041107E06FF070420168890053
:1032C000A1F1C041C1F804217047000030B50022CF
:1032D0008B071C0F0F2303FA04F20B4B8C1053F8CF
:1032E00024309343084C8D1044F8253023468C102D
:1032F00053F824308C07240F00FA04F42343024CC3
:103300008D1044F8253030BD080001402DE9F04112
:10331000024600250026002000230024002791F803
:1033200003C00CF00F0591F803C00CF0100CBCF1B9
:10333000000F03D091F802C04CEA050591F800C0D7
:10334000BCF1000F31D0146800202BE04FF0010CCD
:103350000CFA00F3B1F800C00CEA03069E4220D13B
:1033600083004FF00F0C0CFA03F7BC4305FA03FC83
:103370004CEA040491F803C0BCF1280F06D14FF0C9
:10338000010C0CFA00FCC2F814C00AE091F803C06A
:10339000BCF1480F05D14FF0010C0CFA00FCC2F84B
:1033A00010C0401C0828D1D31460B1F800C0BCF193
:1033B000FF0F34DD546800202EE000F1080C4FF0C0
:1033C000010808FA0CF3B1F800C00CEA03069E42AB
:1033D00021D183004FF00F0C0CFA03F7BC4305FA20
:1033E00003FC4CEA040491F803C0BCF1280F05D19A
:1033F00000F1080C08FA0CF8C2F8148091F803C028
:10340000BCF1480F07D100F1080C4FF0010808FA91
:103410000CF8C2F81080401C0828CED35460BDE8D8
:10342000F0810246002093680B400BB1012000E0C0
:103430000020704741617047016170470148008872
:10344000704700001402002000BFFEE710B5052001
:1034500000F046FE00BF00BF00F0AEFE10BD000051
:1034600010B504462CB14FF480510548FFF7E2FF38
:1034700004E04FF480510248FFF7DEFF10BD00006A
:10348000001401402DE9F04106460F4614461D4642
:103490002B4622463946304600F058FA04FB05F028
:1034A0000249098800F0F9F8BDE8F081EE0100203A
:1034B00001B502E00098401E009000980028F9D164
:1034C00008BD2DE9F05F05460E4691469B46002457
:1034D0000FFA89F70320A0EB49000FFA80FA87E082
:1034E000BBF1000F40D0A0463BE006EB080291B2D2
:1034F0002A1990B200F0B2FB06EB080291B22A1B27
:1035000090B200F0ABFB321991B2A5EB080290B279
:1035100000F0A4FB321B91B2A5EB080290B200F0C0
:103520009DFBA6EB080291B22A1B90B200F096FB1D
:10353000A6EB080291B22A1990B200F08FFB321B61
:1035400091B205EB080290B200F088FB321991B2FB
:1035500005EB080290B200F081FB08F101000FFAC0
:1035600080F8B845C1DD2FE0F21991B22A1990B266
:1035700000F074FBF21991B22A1B90B200F06EFBBE
:10358000321991B2EA1B90B200F068FB321B91B283
:10359000EA1B90B200F062FBF21B91B22A1B90B2C0
:1035A00000F05CFBF21B91B22A1990B200F056FBBE
:1035B000321B91B2EA1990B200F050FB321991B26D
:1035C000EA1990B200F04AFB601C04B2BAF1000F95
:1035D00005DAA000801D50440FFA80FA07E0E01BD6
:1035E00080000A3050440FFA80FA781E07B200BFFC
:1035F000BC427FF775AFBDE8F09F2DE9F047064666
:103600000F4614461D46DDE9099ADDF820802B4659
:1036100022463946304600F099F94FEAC862120C4A
:1036200009F03F0342EA43120AF01F0342EA030192
:1036300004FB05F000F031F8BDE8F08700B597B065
:103640000121080200F000FC0120019004200390F9
:103650008006079000200290049005900690089044
:10366000099008200A9010200B9000200C900E90DA
:103670000F9010904FF480501190002012901390F2
:10368000149001A81590169008A8FFF7ABFD012132
:103690000020FFF78DFD17B000BD70B504460D4644
:1036A00000262C2000F0F6FA00BF03E0284600F0C8
:1036B000F5FA761CA642F9D370BD000008B50121C9
:1036C000602000F0D1FB03208DF8020018208DF857
:1036D00003004FF48040ADF8000069465B48FFF7F7
:1036E00015FE4FF40040ADF8000069465748FFF75B
:1036F0000DFE0120ADF8000069465448FFF706FEB4
:103700000220ADF8000069465048FFF7FFFD802019
:10371000ADF8000069464E48FFF7F8FD4FF48070A1
:10372000ADF8000069464A48FFF7F0FD4FF400701D
:10373000ADF8000069464648FFF7E8FD4FF48060A9
:10374000ADF8000069464248FFF7E0FD4FF4006025
:10375000ADF8000069463E48FFF7D8FD4FF48050B1
:10376000ADF8000069463A48FFF7D0FD4FF400502D
:10377000ADF8000069463648FFF7C8FD4FF48040B9
:10378000ADF8000069463248FFF7C0FD4FF4004035
:10379000ADF8000069462E48FFF7B8FD4FF4807081
:1037A000ADF8000069462948FFF7B0FD4FF40070FE
:1037B000ADF8000069462548FFF7A8FD4FF480608A
:1037C000ADF8000069462148FFF7A0FD03208DF801
:1037D000020018208DF803001020ADF800006946A3
:1037E0001A48FFF793FD2020ADF8000069461748FE
:1037F000FFF78CFD8020ADF8000069461348FFF705
:1038000085FD4FF40060ADF8000069460F48FFF7F2
:103810007DFD10208DF8030003208DF802000220AA
:10382000ADF8000069460A48FFF770FD10208DF8DA
:10383000030003208DF802004FF48050ADF8000023
:1038400069460248FFF762FD08BD00000014014010
:103850000018014070B504460D462946204600F088
:10386000F3F900F0C1F90646304670BD10B50446C4
:10387000072C00DD10BD28480470204604EBD071F1
:103880004910A4EB410139B9F020244908804FF4D4
:10389000A0702349088006E04FF4A0701F490880FB
:1038A000F0201F490880362000F0F4F9082141EA91
:1038B000441000F0F3F92A2000F0ECF9002000F0A9
:1038C000EDF9002000F0EAF914490988491EC1F316
:1038D000072000F0E3F911490978491EC8B200F049
:1038E000DDF92B2000F0D6F9002000F0D7F90020F8
:1038F00000F0D4F90A490988491EC1F3072000F0F5
:10390000CDF907490978491EC8B200F0C7F92C2043
:1039100000F0C0F900BFADE7E4010020E0010020A5
:10392000E201002010B5FFF7C9FEFFF787FE012076
:10393000FFF796FD00F074F900F038F802480078BF
:10394000FFF794FF10BD0000E40100202DE9F041D5
:1039500004460D4616461F462A2000F09BF9201209
:1039600000F09CF9E0B200F099F9A119491EC1F3E9
:103970000F2000F093F9A119491EC8B200F08EF98A
:103980002B2000F087F9281200F088F9E8B200F047
:1039900085F9E919491EC1F30F2000F07FF9E919F3
:1039A000491EC8B200F07AF9BDE8F08110B5CF2009
:1039B00000F070F9002000F071F9812000F06EF93C
:1039C000302000F06BF9ED2000F064F9642000F085
:1039D00065F9032000F062F9122000F05FF9812000
:1039E00000F05CF9E82000F055F9852000F056F968
:1039F000102000F053F9782000F050F9CB2000F0AF
:103A000049F9392000F04AF92C2000F047F900204C
:103A100000F044F9342000F041F9022000F03EF9B2
:103A2000F72000F037F9202000F038F9EA2000F004
:103A300031F9002000F032F9002000F02FF9B12018
:103A400000F028F9002000F029F91B2000F026F9E9
:103A5000B62000F01FF90A2000F020F9A22000F0A3
:103A60001DF9C02000F016F9352000F017F9C1202B
:103A700000F010F9112000F011F9C52000F00AF94A
:103A8000452000F00BF9452000F008F9C72000F0B0
:103A900001F9A22000F002F9F22000F0FBF800206A
:103AA00000F0FCF8262000F0F5F8012000F0F6F810
:103AB000E02000F0EFF80F2000F0F0F8262000F0F2
:103AC000EDF8242000F0EAF80B2000F0E7F80E20D3
:103AD00000F0E4F8092000F0E1F8542000F0DEF8EE
:103AE000A82000F0DBF8462000F0D8F80C2000F009
:103AF000D5F8172000F0D2F8092000F0CFF80F20F9
:103B000000F0CCF8072000F0C9F8002000F0C6F85B
:103B1000E12000F0BFF8002000F0C0F8192000F00C
:103B2000BDF81B2000F0BAF8042000F0B7F8102010
:103B300000F0B4F8072000F0B1F82A2000F0AEF849
:103B4000472000F0ABF8392000F0A8F8032000F07F
:103B5000A5F8062000F0A2F8062000F09FF830201B
:103B600000F09CF8382000F099F80F2000F096F84B
:103B7000362000F08FF8C82000F090F82A2000F0DE
:103B800089F8002000F08AF8002000F087F8002073
:103B900000F084F8EF2000F081F82B2000F07AF894
:103BA000002000F07BF8002000F078F8012000F001
:103BB00075F83F2000F072F83A2000F06BF85520BD
:103BC00000F06CF8112000F065F80348FFF770FC76
:103BD000292000F05FF810BDFCBF020001480088FA
:103BE000704700000000026070B500240025002628
:103BF0002E2000F04FF8FFF7F1FF0446FFF7EEFF2D
:103C00000446FFF7EBFF0646FFF7E8FF0546E01224
:103C1000C002A91240EA411040EAE62070BD00004F
:103C200010B502210748FFF705FC40F6FF20FFF71B
:103C30003FFC02210348FFF7FFFB40F6FF20FFF7A0
:103C400037FC10BD0018014070B504460D46012335
:103C50001A4629462046FFF779FE70BD70B5054625
:103C60000C460948008885420CDA084800888442DE
:103C700008DA21462846FFF7E7FF054801880120BA
:103C8000FFF70BFD70BD0000E0010020E201002005
:103C9000EC0100204FF0C0410880704701490880C6
:103CA000704700000000026008B50121142000F0F8
:103CB000DBF80120ADF8000004208DF80300694610
:103CC0000748FFF723FB4FF40050ADF80000042035
:103CD0008DF8030069460348FFF718FB08BD000094
:103CE000000801400010014070B504460D46294609
:103CF0002046FFF796FB012808D100BF2946204641
:103D0000FFF78FFB0128F9D0012070BD0020FCE7F0
:103D1000024A1080024A118070470000EC01002026
:103D2000EE0100200149086070470000E801002012
:103D300008B50121082000F097F82020ADF8000018
:103D400010208DF8030003208DF8020069460F480B
:103D5000FFF7DCFA0120ADF8000069460B48FFF7D9
:103D6000D5FA0220ADF8000069460848FFF7CEFA00
:103D700020210648FFF760FB01210448FFF75CFBA8
:103D800002210248FFF758FB08BD0000000C01406B
:103D900000BFFEE7704708B54FF4C06000F048F878
:103DA00028208DF8000000208DF801008DF8020019
:103DB00001208DF80300684600F002F808BD0000FD
:103DC00070B5002100230F22C47804B3154C246879
:103DD00004F4E064C4F5E064210AC1F10403CA40BC
:103DE000447804FA03F184781440214309010E4C0D
:103DF0000678A155047804F01F050124AC4005782D
:103E00006D11AD0005F1E025C5F8004109E0047829
:103E100004F01F050124AC40044D0678761145F8E6
:103E2000264070BD0CED00E000E400E080E100E021
:103E300002490143024A1160704700000000FA0580
:103E40000CED00E07047000029B1064A52690243B8
:103E5000044B5A6104E0034A52698243014B5A61A0
:103E6000704700000010024029B1064A92690243DF
:103E7000044B9A6104E0034A92698243014B9A61C0
:103E8000704700000010024030B5002100220024DD
:103E900000232D4D6D6805F00C0121B1042905D0DA
:103EA000082923D105E0294D056022E0274D056052
:103EB0001FE0254D6D6805F47012234D6D6805F403
:103EC0008034022505EB92421CB9214D5543056013
:103ED0000BE01D4D6D6805F400351DB11C4D5543BB
:103EE000056002E0194D5543056002E0174D05607D
:103EF00000BF00BF144D6D6805F0F0010909154DB4
:103F00006B5C0568DD4045600F4D6D6805F4E06150
:103F1000090A104D6B5C4568DD4085600A4D6D688F
:103F200005F46051C90A0B4D6B5C4568DD40C56006
:103F3000054D6D6805F44041890B074D6B5CC56804
:103F4000B5FBF3F5056130BD0010024000127A00A8
:103F500000093D00160200202602002070472DE9CE
:103F6000F04707468846144699464FF0000A002558
:103F7000FFF764FA064600BF0025E2B24B46414611
:103F8000384600F0B3F805466DB166B15046411CA5
:103F900001F0FF0A042802DD2846BDE8F08730461C
:103FA00004F0BEF9E8E72846F7E72DE9F0470746B1
:103FB0008846144699464FF0000A0025FFF73EFA5E
:103FC000064600BF0025E2B24B464146384600F0A7
:103FD000C6F805466DB166B15046411C01F0FF0AB6
:103FE000042802DD2846BDE8F087304604F098F941
:103FF000E8E72846F7E710B500F002F810BD00002A
:104000000CB50020019000903348006840F48030E7
:104010003149086000BF3048006800F4003000906B
:104020000198401C0190009818B90198B0F5A06F54
:10403000F1D12948006800F4003010B1012000904F
:1040400001E0002000900098012843D12348006837
:1040500040F01000214908600846006820F0030085
:1040600008600846006840F0020008601A4840688E
:10407000194948600846406848600846406840F46E
:10408000806048600846406820F47C10486008461C
:10409000406840F4E81048600846006840F08070CE
:1040A000086000BF0C48006800F000700028F9D0DC
:1040B0000948406820F00300074948600846406806
:1040C00040F00200486000BF0348406800F00C0068
:1040D0000828F9D10CBD0000001002400020024069
:1040E0000149088070470000140200202DE9F041CA
:1040F0000746884614461D4600F0E2F8002141EAD2
:104100004701C8B200F040F9064616B13046BDE896
:10411000F081404600F038F906460EB13046F6E729
:1041200000F0CEF8012101EB4701C8B200F02CF9F4
:1041300006460EB13046EAE70BE0012C03D100F051
:1041400063F8287002E000F08DF828706D1C601E86
:10415000C4B2002CF1D100F0E3F80020D7E72DE93C
:10416000F04706460F4690469946002500F0A8F80D
:10417000002141EA4601C8B200F006F9054615B132
:104180002846BDE8F087384600F0FEF805460DB138
:104190002846F6E7002409E019F8040000F0F4F8D6
:1041A00005460DB12846ECE7601CC4B24445F3DB7C
:1041B00000F0B6F80020E4E708B501210820FFF779
:1041C00053FEC020ADF8000002208DF8020014203C
:1041D0008DF8030069460748FFF798F84021054825
:1041E000FFF72AF980210348FFF726F9024800F07B
:1041F00005F808BD000C0140A086010000BF411E6B
:10420000081EFCD17047000070B580211448FFF7EC
:1042100013F940211248FFF70DF90024002518E09A
:1042200040210F48FFF708F90A20FFF7E7FF600673
:10423000040E80210A48FFF7F4F808B144F00104A5
:1042400040210748FFF7F6F80A20FFF7D7FF681C60
:10425000C5B2082DE4DB00F0C7F8204670BD0000B1
:10426000000C014070B580211448FFF7E5F84021AB
:104270001248FFF7DFF80024002518E040210F481E
:10428000FFF7DAF80A20FFF7B9FF6006040E802175
:104290000A48FFF7C6F808B144F001044021074876
:1042A000FFF7C8F80A20FFF7A9FF681CC5B2082D60
:1042B000E4DB00F04FF8204670BD0000000C014028
:1042C00010B580211548FFF7B7F80A20FFF796FFD1
:1042D00040211248FFF7B0F80A20FFF78FFF802136
:1042E0000E48FFF79EF808B9012010BD80210B4849
:1042F000FFF7A0F80A20FFF781FF40210748FFF7EA
:1043000099F80A20FFF77AFF80210448FFF789F81F
:1043100008B10220E9E70020E7E70000000C0140B7
:1043200010B580210A48FFF785F80A20FFF766FFDD
:1043300040210748FFF780F80A20FFF75FFF802140
:104340000348FFF779F80A20FFF758FF10BD000077
:10435000000C014010B580210A48FFF76BF80A20D5
:10436000FFF74CFF40210748FFF766F80A20FFF7E8
:1043700045FF40210348FFF75DF80A20FFF73EFFA5
:1043800010BD0000000C014070B5044640211548E6
:10439000FFF750F8002520E004F0800020B18021D4
:1043A0001048FFF749F803E080210E48FFF742F874
:1043B0006006040E0A20FFF721FF40210948FFF79D
:1043C0003BF80A20FFF71AFF40210648FFF732F8B2
:1043D0000A20FFF713FF681CC5B2082DDCDB00F0D4
:1043E0001DF870BD000C014010B580210A48FFF790
:1043F00023F80A20FFF702FF40210748FFF71CF8C7
:104400000A20FFF7FBFE40210348FFF713F80A20BC
:10441000FFF7F4FE10BD0000000C014010B50024B1
:1044200080211148FFF708F80A20FFF7E7FE402136
:104430000D48FFF701F80A20FFF7E0FE07E0601CD7
:10444000C4B2FA2C03DDFFF76BFF022010BD802100
:104450000548FEF7E6FF0028F1D140210248FEF7AB
:10446000E9FF0020F2E70000000C014010B500F069
:104470008BF800F081F800240CE0084850F8240084
:1044800030B1064850F82400401E044941F8240089
:10449000601CC4B2022CF0DB10BD0000D80100206B
:1044A00030B51A4800684FF47A72B0FBF2F1B1F1FE
:1044B000807F01D301201DE021F07F40401E4FF09E
:1044C000E022506150170F22002807DA13071D0E53
:1044D0000F4B00F00F04241F1D5503E013071C0EA3
:1044E0000C4B1C5400BF00204FF0E02290610720CD
:1044F0001061002008B100BFFEE74FF0E020006926
:1045000020F001004FF0E021086130BD2C020020B6
:1045100018ED00E000E400E010B51348006840F03A
:1045200001001149086008464068104908400E49DA
:104530004860084600680E4908400B490860084674
:10454000006820F4802008600846406820F4FE00DF
:1045500048604FF41F008860FFF74DFD4FF000608A
:104560000449086010BD0000001002400000FFF880
:10457000FFFFF6FE08ED00E002480068401C01491C
:1045800008607047F00100200448006820B103482B
:104590000068401E0149086070470000F4010020D7
:1045A00001F40072B2F5007F00D100BFCA4302805F
:1045B000704721B1828942F40052828104E08289ED
:1045C0004DF6FF731A4082817047000000B585B038
:1045D00001210420FFF748FC01218803FFF744FC78
:1045E0004FF40070ADF8100018208DF81300032070
:1045F0008DF8120004A91348FEF788FE4FF480607E
:10460000ADF8100004208DF8130004A90D48FEF742
:104610007DFE4FF4E13000900020ADF80400ADF8CD
:104620000600ADF80800ADF80C000C20ADF80A004B
:104630006946054800F018F801210348FFF7B9FF63
:1046400005B000BD000801400038014002460020CE
:10465000B1F5007F00D100BF13880B400BB10120E2
:1046600000E00020704700002DE9F04786B00546C5
:104670000E460024A24600BFA1460027B08900B123
:1046800000BF2F462C8A4CF6FF700440F08804438C
:104690002C82AC894EF6F3100440B088318908436F
:1046A000718908430443AC81AC8A4FF6FF40044053
:1046B000B0890443AC8201A8FFF7E6FB1F4887429C
:1046C00002D1DDF810A001E0DDF80CA0A88900F40B
:1046D000004040B10AEBCA0000EB0A103168490003
:1046E000B0FBF1F807E00AEBCA0000EB0A103168F2
:1046F0008900B0FBF1F86420B8FBF0F00401200958
:10470000642101FB1089A88900F4004040B13220E7
:1047100000EBC900B0FBF1F000F00700044308E033
:10472000322000EB09106421B0FBF1F000F00F0023
:1047300004432C8106B0BDE8F0870000003801403A
:10474000C1F308028280704700BFFEE70FB42DE975
:10475000F043C7B006468946092E0ED2DFE806F0C0
:1047600005060708090A0B0D0C0000BF00BF00BFBB
:1047700000BF00BF00BF00BF05E0002047B0BDE89C
:10478000F0035DF814FB00BF51A8469006A8469AB6
:10479000509900F04FF80446002C03DC00204690AE
:1047A0002046EBE718216846FDF737FF24208DF8F7
:1047B000000001208DF80100F0B28DF802000D20FC
:1047C0008DF815000A208DF8160000251CE0601BEE
:1047D000122801DA601B00E0122000F0FF0812210D
:1047E0000DF10300FDF719FF06A8411942461538DF
:1047F000FDF7ECFE002704E01DF8070001F0CAFDFC
:104800007F1C172FF8DB1235A542E0DB0020469015
:1048100000BFB3E70FB4054B10B503A9044A0298D3
:1048200000F0E2F910BC5DF814FB000071630008B1
:104830007402002037B514460846064B6A462146E6
:1048400000F0D2F904466946002000F064FD2046DD
:104850003EBD0000175300084100080218BF0420A5
:104860000A0E18BF40F001004FF07F4232EA01010A
:1048700008BF40F00200012808BF05207047012151
:10488000FDF7ABBFFDF7E1BE00210846FDF767BFAE
:104890006FF05E010807FDF7A0BF00002DE9F04DA5
:1048A0000D4614464FF07F41B1EB440F9EBF4FF0D1
:1048B000FF312960BDE8F08D4FF0004040EA04214F
:1048C000C4F3C750783810F01F024A4B4FEA601CFF
:1048D000C2F120067B44C4F3C750A0F178004FEA30
:1048E000601003EB800053F82C3008BFD0E901C6FC
:1048F00012D0D0F804C093402CFA06F73B438768E7
:104900000CFA02FC27FA06F8C06807FA02F2F04037
:104910004CEA080C42EA0006A3FB0132ACFB01C0E2
:10492000A6FB016101EB0C068E4234BF4FF0010C77
:104930004FF0000CC1186144BCF1000F02D081425D
:1049400002D903E0814201D2012000E0002010449E
:1049500000F120024FEA92188006CA0C40EA423069
:104960004F03C5F80080FEF7E3F882463846FEF7AD
:10497000E8F86FF01201FDF730FF07463046FEF70A
:10498000E0F86FF02501FDF728FF834639465046D1
:10499000FDF75BFE5946FDF758FE00F500666FF324
:1049A0000B0651463046FDF7A2FE3946FDF79FFE45
:1049B0005946FDF79FFE1049FDF79FFE07460F4938
:1049C0003046FDF79AFE3946FDF73FFE07460C4993
:1049D0003046FDF792FE3946FDF737FE14F0004FE2
:1049E00008BFBDE8F08DC8F1805180F0004029601B
:1049F000BDE8F08D1C990000DB0FC92F22AAFD290C
:104A00000000C92FFEB507460C4615461E46234634
:104A100003A2002106208DE8E000FFF797FEFEBD0F
:104A200025737C25737C25642072657475726E69AC
:104A30006E672025640A000002E008C8121F08C142
:104A4000002AFAD170477047002001E001C1121F0F
:104A5000002AFBD170470000014908607047000040
:104A6000780200202DE9FF5F82B00021DDE90430EB
:104A7000020DDDF840B0034318D044F61050A2F206
:104A8000FF3242431514119801281FD0A5EB0B00EB
:104A9000401C5FEA000A4FF000064E4FDFF83891E5
:104AA000B046504615D5CAF1000413E01198012410
:104AB0004AA3012801D16FEA0B010298119AC0E9BB
:104AC0000031C0E9024206B0BDE8F09FCBF1000022
:104AD000DFE704460021404A491842EB0450CDE983
:104AE000001012E0E00707D032463B4640464946F8
:104AF000FDF726FF8046894632463B46104619465A
:104B0000FDF71EFF06460F466410002CEAD1DDE9D2
:104B10000401DDE90023BAF1000F06DAFDF710FF0A
:104B200042464B46FDF70CFF05E0FDF77BFF424692
:104B30004B46FDF777FF04460E460022284BFEF752
:104B4000C5F803D84FF0FF30014607E00022254B9F
:104B500020463146FDF74DFEFEF738FA102409E0F5
:104B6000002C0ADB0A220023FEF70EF9039B3032E9
:104B70001A55641E50EA0102F2D1641C039AC4F172
:104B800011031444119A012A03D0012208430DD1C4
:104B90000AE0084304D000204FF0110B119072E797
:104BA000A3EB0B056D1E0DE05B4504DD4FF000022D
:104BB00005F1010504E003DA4FF00002A5F101055B
:104BC000002AECD002981199C0E90231C0E90045F1
:104BD00079E70000000014400000F03F30000000C2
:104BE0000000F0430000E03F2DE9FF4F95B09B46E9
:104BF0008946064600250FE2252877D1002427465E
:104C0000F84A0121059400E0044316F8013F203BD7
:104C100001FA03F01042F7D130782A2811D06FF052
:104C20002F033078A0F13002092A16D8059A44F0F3
:104C3000020402EB820203EB42021044761C059050
:104C4000EFE759F8042B0592002A03DA504244F4A6
:104C50000054059044F00204761C30782E2816D1BA
:104C600016F8010F44F004042A280DD06FF02F022B
:104C70003078A0F13003092B09D807EB870302EB4A
:104C80004303C718761CF3E759F8047B761C307889
:104C90006C280FD006DC4C2817D068280DD06A2865
:104CA00014D104E0742810D07A280FD10DE044F418
:104CB00000140AE044F4801401E044F440147278D3
:104CC000824202D104F58014761C761C3078662866
:104CD0000BD013DC582877D009DC002875D0452884
:104CE000F6D04628F4D047281AD19DE118E0632871
:104CF00035D0642879D0652812D195E1702873D019
:104D000008DC6728F1D069286FD06E280DD06F2895
:104D100006D1B5E073282CD0752875D0782874D0CA
:104D20005A46179990476D1C75E1C4F3025002284A
:104D300009D003280DD0D9F8001004280DD00D603B
:104D400009F1040967E1D9F80010EA17C1E9005236
:104D5000F6E7D9F800100D80F2E70D70F0E719F8CA
:104D6000041B8DF8001000208DF80100EA46012098
:104D700003E059F804AB4FF0FF3061074FF000013A
:104D800002D40DE008F101018846B9420FDA8045EE
:104D9000F8DB1AF808100029F4D108E008F1010145
:104DA00088468142FADB1AF808100029F6D10598E6
:104DB0005B46A0EB080721463846179A00F094FAA4
:104DC000284400EB080507E04DE029E10DE01AF862
:104DD000010B5A4617999047B8F10108F7D25B4684
:104DE00021463846179A13E142E00A220092C4F3A2
:104DF00002524FF0000A022A08D059F804CB032AC5
:104E00004FEAEC710AD00DE029E02AE009F1070130
:104E100021F00702F2E802C1914609E00FFA8CFC8A
:104E20004FEAEC71042A03D14FFA8CFC4FEAEC7183
:104E3000002907DA0A460021DCF1000C61EB0201CF
:104E40002D2202E0220504D52B228DF80420012218
:104E500003E0E20701D02022F7E7904659E00A215B
:104E600002E010220DE010214FF0000A00910BE04B
:104E700010224FF0000A44F004040827009203E0D7
:104E800008224FF0000A0092C4F30252022A05D011
:104E900059F804CB0021032A08D009E009F10701E1
:104EA00021F00702F2E802C1914605E01FFA8CFCEE
:104EB000042A01D10CF0FF0C4FF00008220728D57E
:104EC000702806D0009B83F0100353EA0A0305D034
:104ED0000EE040228DF80420012208E05CEA010285
:104EE00006D030228DF804208DF80500022290466D
:104EF000009B83F0080353EA0A030AD15CEA01022B
:104F000001D1620705D530228DF804204FF0010849
:104F10007F1E582804D034A003900EA802900DE004
:104F200036A0F9E753466046009AFDF72DFF844608
:104F30000398825C0298401E029002705CEA0100B5
:104F4000F0D1029806A9081A00F1200A600702D5DC
:104F500024F4803400E00127574502DDA7EB0A0066
:104F600000E0002000EB0A01009005984144401A3F
:104F70000590E00306D45B462146179A059800F099
:104F8000B3F90544002706E001A85A46C05D179909
:104F900090476D1C7F1C4745F6DBE0030CD55B4654
:104FA0002146179A059800F09FF9054404E0302047
:104FB0005A46179990476D1C0099481E0090002989
:104FC000F5DC08E0029802995A460078491C0291E3
:104FD000179990476D1CBAF10001AAF1010AF1DCA2
:104FE00065E10000092801003031323334353637AD
:104FF0003839616263646566000000003031323325
:1050000034353637383941424344454600000000C4
:1050100000F058F90544761C307800287FF4ECAD98
:1050200019B02846BDE8F08F620700D4062709F1C1
:10503000070222F0070CFCE80223E14603F00048D7
:105040005FEA080C02D00FF2702C0DE05FEA045CFE
:1050500002D50FF2682C07E05FEAC47C02D00FF2A1
:10506000602C01E0AFF2700C4FF0FF3823F00043EA
:10507000CDF850C065280CD006DC452809D046285C
:105080001DD047283DD13DE0662818D067287ED145
:1050900038E00021112F01DB112000E0781CCDE960
:1050A000000106A90EA8FFF7DDFCDDE90F010E9A4D
:1050B00003910021009207F1010A04914DE04FF0A5
:1050C00000400097CDE9011006A90EA8FFF7CAFC21
:1050D000DDE90F0203920E9B11990022DDF80CA06E
:1050E0000093049211B9791C00EB010AB7EB0A0096
:1050F00004D4C0F1FF3007F1010A0490AAEB0700C5
:10510000019044E0012F00DA01270021112F01DD79
:10511000112000E03846CDE9000106A90EA8FFF7EE
:10512000A1FCDDE90F010E9A039100210491009288
:10513000BA4621070CD40399514500DA8A46BAF1E0
:10514000010F05DD009AAAF10101515C302908D058
:10515000B84202DA10F1040F06DA0121CDE901109C
:1051600015E0AAF10101E9E7002805DC04990144F2
:105170000491AAEB000102E0411C514500DD8A4682
:105180000499401A401C01904FF000400290200703
:1051900004D40198504501DBCDF8048000208DF83F
:1051A0004F0002980DF14F07B0F1004F25D02B2092
:1051B0000E9002984FF0020800280CDA404202904C
:1051C0002D200E9007E00A210298FDF7C7FD30312F
:1051D000029007F8011DB8F10001A8F10108F2DC06
:1051E00002980028EFD1791E0E980870307800F0F0
:1051F000200040F0450007F8020D12A8C01B00F186
:1052000007081498007800B1012000EB0A0101980A
:1052100001EBE07105984144401A401E0590E003FF
:1052200006D45B462146179A059800F05DF80544C0
:105230001498007818B15A46179990476D1CE003EE
:1052400024D55B462146179A059800F04DF8054491
:105250001CE00498002807DBDDE90301884203DD38
:105260000098405C179901E0179930205A46904702
:10527000049805F10105401C04900198401E01901E
:1052800004D12E205A46179990476D1CBAF100019F
:10529000AAF1010ADDDC05E017F8010B5A4617995F
:1052A00090476D1CB8F10001A8F10108F4DC5B46E1
:1052B0002146179A0598ABE62D0000002B00000050
:1052C000200000002DE9F041044600251E46174647
:1052D000880404D405E039462020B0476D1C641EC4
:1052E000F9D52846BDE8F0812DE9F04104460025B6
:1052F0001E469046C80301D5302700E020278804C9
:1053000004D505E041463846B0476D1C641EF9D50A
:105310002846BDE8F0810A68531C0B601070704786
:105320002DE9F04104464FF01A4000EB4400B0F183
:10533000C85F204655D84FF0FC41B1EB440F1CD25A
:1053400024F000404FF07E51FDF7D4F94FF0FF31CB
:10535000FDF743FA054604F0F1FA14F0004F1DBFC3
:105360002C4F2D4E80F00040002708BF3E464FF0E6
:105370004041FDF7C2F9044605E0284F284E01469A
:10538000FDF7BBF9054627492846FDF7B6F926493A
:10539000FDF75BF92946FDF7B0F92449FDF755F90A
:1053A0002946FDF7AAF92249FDF74FF92946FDF7ED
:1053B000A4F92049FDF749F9804629462046FDF722
:1053C0009CF94146FDF799F9054631462046FDF71F
:1053D00091F92946FDF78BF93946BDE8F041FDF713
:1053E00034B94FF0CC41B1EB440F84BF1248BDE853
:1053F000F0814FF07F41B1EB440F03D2BDE8F041A3
:10540000FFF73DBA0120FFF727FBBDE8F041FFF7AA
:105410003BBA00000000494022AA7D3A0000C93F83
:1054200022AAFD3924FE1C3DC78AD83C1E67383DA0
:105430001B93993DAFAA2A3EDB0FC93F10B5044626
:1054400000BF00BF34B1012C0AD0022C0ED0032CB7
:1054500018D111E00DA200210420FFF777F912E026
:105460000DA200210420FFF771F90CE00DA200212C
:105470000420FFF76BF906E00FA200210420FFF7DC
:1054800065F900E010BD00BF00BFFBE7506F72740C
:10549000726169740A0000004C616E64736361702C
:1054A000650A00005265766572736520506F7274EC
:1054B000726169740A000000526576657273652036
:1054C0004C616E6473636170650A00002DE9F047FA
:1054D0004FF0684202EB40030C460546B3F1654FBE
:1054E0003CBF02EB4102B2F1654F7CD2C0F3C7531F
:1054F000C1F3C7529A1A1B2A06DD10F0004F14BFE1
:1055000076487748BDE8F08712F11A0F17DA11F0E4
:10551000004F06D010F0004F0CBF72487248BDE833
:10552000F08721462846FDF71AF90446FFF794F95B
:10553000042808BFFFF7ACF92046BDE8F087420019
:10554000B2EB410F25D910F0004F19BF674F684EDD
:10555000684F694E224685F0004415460A4680F0A1
:10556000004110460A1A5200B2F1807F40D24840F2
:105570006249DFF88CA110F0004F18D04FF03F487F
:105580003846FDF7B4F8074651463046FDF7AFF808
:1055900017E011F0004F04BF00263746E2D010F0AC
:1055A000004F19BF574F584E584F594EDAE74FF03A
:1055B0007C583846FDF749F8074651463046FDF716
:1055C00044F8064641462846FDF797F82146FDF780
:1055D0003CF8824621464046FDF78FF82946FDF704
:1055E00089F8514600E037E0FDF7B9F8044604E0D9
:1055F00021462846FDF7B3F804460146FDF77DF83D
:1056000080464449FDF779F84349FDF71EF84146C5
:10561000FDF773F84149FDF718F84146FDF76DF8BD
:105620003F49FDF712F84146FDF767F83D49FDF7A0
:105630000CF8054641462046FDF75FF82946FDF780
:105640005CF83146FDF701F82146FCF7FEFF3946CC
:10565000BDE8F047FCF7F9BF4FF07F42B2EB400FD7
:1056600028BFB2EB410F03D2BDE8F047FFF70AB9FC
:1056700040EA01035B0008BF44F0FF410AD0B2EBEF
:10568000400F08BFB2EB410F06D125F0804024F057
:10569000804105460C4629E7B2EB400F12BF5FEA96
:1056A000410245F0FF4004F000413FF41FAF4A00C3
:1056B00092EA40033FF51AAF002AACBF4FF09F4675
:1056C0004FF03E563146FDF718F805463146204664
:1056D000FDF713F804462846214607E7DB0FC9BF4C
:1056E000DB0FC93FDB0F4940DB0F49C00000C9BFDA
:1056F00022AAFDB90000C93F22AAFD390060ED3E93
:10570000C30ACE37000049C022AA7DBA0000494032
:1057100022AA7D3A2DAD65BD8FB8D53D0FB511BE1E
:1057200061C84C3EA8AAAABE2DE9F8430446024629
:105730004F486946B0EB420F09D94FF0E640B0EB55
:10574000420F94BF00204FF0FF30009030E0494BF3
:1057500022F00040834271D947492046FCF7CDFF33
:10576000FDF7B9FB8046FDF718FA00F00300009042
:1057700042494046FCF7C1FF054641494046FCF717
:10578000BCFF06463F494046FCF7B7FF07463E4987
:105790004046FCF7B2FF2146FCF7ACFF3946FCF768
:1057A000A6FF3146FCF7A3FF2946FCF7A0FF0446FD
:1057B0002546009C002C45DB294614F0010F0846C5
:1057C0001CD0FCF79AFF06463049FCF796FF30499B
:1057D000FCF790FF3146FCF790FF2E49FCF735FFB0
:1057E0003146FCF78AFF2946FCF787FF2946FCF77C
:1057F0002CFF14F0020F1CD0BDE8F883FCF77DFFEE
:1058000005462549FCF779FF2449FCF71EFF294688
:10581000FCF773FF2249FCF718FF2946FCF76DFFE0
:105820004FF07E51FCF711FF14F0020F08BFBDE8E6
:10583000F88380F00040BDE8F883FFE71046FFF7EB
:105840002DF8B4E76800B0F17F4F3CBF4FF07E50B9
:10585000BDE8F88307D14FF00100FFF7FDF8BDE880
:10586000F843FFF711B82846BDE8F843FFF707B83B
:10587000B61F927E490E494683F9223F1A61342CA5
:105880000020A23300A0FD390000C93F336D4C3920
:10589000DA82083CA0AA2ABEB93AB2BACA9F2A3D07
:1058A000DDFFFFBE2DE9F0410446E07800F0C006C0
:1058B000E07800F03F05607800F0010098B1EF104B
:1058C0002846E91705EB5171C910A5EBC101491C28
:1058D00001F0FF080B48006820B10A484146026801
:1058E0003846904700BF607800F0080030B10548A6
:1058F000406818B1B011034A516888470020BDE8DC
:10590000F0810000D44A002038B5044664B120205C
:105910008DF8000028208DF8010030208DF802005D
:1059200038208DF8030004E0A32204216846FCF728
:105930006DFE6A46042140F69E2003F0A3FD03F0AD
:105940001BFA38BD3EB5044602208DF80000CA207F
:105950008DF80100E3208DF8020009208DF8030086
:105960006A460421682003F08DFDA3208DF8000015
:1059700004F0400048B1C0208DF80100C8208DF827
:105980000200C2208DF8030006E0A3208DF801007C
:105990008DF802008DF8030004F4C07048B1C420F3
:1059A0008DF80400CC208DF80500C6208DF8060087
:1059B00006E0A3208DF804008DF805008DF80600A0
:1059C000A3208DF807008DF808008DF809006A46BD
:1059D0000A2140F6A72003F055FD04F0030018B19A
:1059E00020208DF8000002E0D8208DF800006A46E3
:1059F000012140F6B62003F045FD04F0200018B167
:105A0000012000F0ADF802E0002000F0A9F804F455
:105A1000C07008B304F4807060B1B2208DF800004B
:105A20008B208DF80100B6208DF802009B208DF8A8
:105A300003000BE0B0208DF8000080208DF80100FD
:105A4000B4208DF8020090208DF803006A460421EE
:105A500040F6A22003F016FD04F0010020B3F82068
:105A60008DF800006A4601214FF40B6003F00AFD37
:105A7000FA21072000F00CFB072000F0D3FA0120E8
:105A800000F0F3FA642000F0D3FB4FF4FA7000F05A
:105A9000E2FBC821304800F083FA282000F09CFA8D
:105AA0000A2000F0ACFA08E0D8208DF800006A4621
:105AB00001214FF40B6003F0E5FC04F0020018B183
:105AC000D9208DF8000002E0D8208DF800006A4649
:105AD000012140F23D7003F0D5FC04F0040018B140
