:020000040800F2
:10000000584E002045010008AB150008A70A00085B
:10001000A715000857080008211A00080000000072
:10002000000000000000000000000000C5160008ED
:100030005B08000800000000AD150008B1170008BB
:100040005F0100085F0100085F0100085F01000810
:100050005F0100085F0100085F0100085F01000800
:100060005F0100085F0100085F0100085F010008F0
:100070005F0100085F0100085F0100085F010008E0
:100080005F0100085F0100085F0100085F010008D0
:100090005F0100085F0100085F0100085F010008C0
:1000A0005F0100085F0100085F0100085F010008B0
:1000B0005F0100085F0100085F0100085F010008A0
:1000C0005F0100085F0100085F0100085F01000890
:1000D0005F0100085F0100085F0100085F01000880
:1000E0005F0100085F0100085F0100085F01000870
:1000F0005F0100085F0100085F0100085F01000860
:100100005F0100085F0100085F0100085F0100084F
:100110005F0100085F0100085F0100085F0100083F
:100120005F0100085F0100085F0100085F0100082F
:10013000DFF80CD000F042FB0048004725260008FD
:10014000584E00200648804706480047FEE7FEE775
:10015000FEE7FEE7FEE7FEE7FEE7FEE7FEE7FEE777
:100160002D180008310100080649074A0868504365
:1001700043F23902104408604008704701490860A2
:1001800070470000180200206D4EC64140EA01038E
:100190009B0703D009E008C9121F08C0042AFAD23D
:1001A00003E011F8013B00F8013B521EF9D2704701
:1001B000D2B201E000F8012B491EFBD270470022A9
:1001C000F6E710B513460A4604461946FFF7F0FF56
:1001D000204610BD2DE9FE4F804681EA0300C00F86
:1001E0000C46009021F0004123F00045B8EB0200DE
:1001F000A94105D24046214690461C460B46024680
:1002000023F00040104347D0270DC7F30A00C3F383
:100210000A510290401A019040286BDAC3F3130090
:1002200040F4801B0098924620B10023D2EB030AD1
:1002300063EB0B0B01985946C0F14002504600F0A9
:1002400066F906460D4650465946019A00F06EF989
:1002500010EB08006141002487EA115284EAE77339
:100260001A4340D0009A62B3019A012A4FEA07521A
:1002700015DC001B61EB02014FF0004202EA07525D
:10028000CDE90042001C41F5801132462B4600F0BA
:10029000A5F903B0BDE8F08F40462146F9E7001B01
:1002A00061EB0201001C41F5801300185B4120182E
:1002B000A2F5001747EB030140EAD570B6196D416E
:1002C00011E06D084FEA360645EAC0754FEA07525D
:1002D000001B61EB0201001C41F5801149084FEA47
:1002E00030000019514132462B4603B0BDE8F04FB3
:1002F00000F065B90098012240000023D0EB020213
:1003000063EBE073009821464FEAE074B8EB00001D
:1003100061EB0401E9E783F000435BE781F0004112
:1003200058E72DE9F04D81EA030404F0004B21F079
:10033000004514464FF0000A23F0004150EA050240
:1003400020D054EA01021DD0C5F30A570246C5F376
:100350001303C1F31300C1F30A5640F4801543F4AC
:100360008013A7EB0608101BD64608F2FD3873EB86
:10037000050002D308F1010801E092185B41B8F1D1
:10038000000F03DA00200146BDE8F08D00204FF495
:100390008011064684460EE0171B73EB050705D354
:1003A000121B63EB050306434CEA010C49084FEAB4
:1003B000300092185B4150EA0107EDD152EA030088
:1003C00012D082EA040083EA0501084305D0101B1D
:1003D000AB4106D20122002306E000224FF0004389
:1003E00002E06FF0010253101AEB06004CEB0851CB
:1003F00010EB0A0041EB0B01BDE8F04D00F0DFB857
:100400000EB5C10F80EAE0700844CA07002140F22F
:1004100033438DE80E000A460B4600F0DFF803B0C8
:1004200000BD00F0004230F000400AD0C10D01F5DF
:100430006071C0F3160042EA0151C208400711433F
:10044000704700200146704701F0004330B421F0AE
:10045000004150EA010206D00A0DA2F56072C1F314
:100460001301002A02DC30BC00207047440F44EA2C
:10047000C104C100E01830BC00EBC25000F068B805
:1004800030B50B46014600202022012409E021FA64
:1004900002F59D4205D303FA02F5491B04FA02F561
:1004A0002844151EA2F10102F1DC30BD2DE9F05FF8
:1004B0000546002092469B468846064681464024D3
:1004C0001BE0284641464746224600F089F953463C
:1004D0005A46C01A914110D311461846224600F0E0
:1004E00016F82D1A67EB01084F462246012000211D
:1004F00000F00DF817EB00094E41201EA4F1010495
:10050000DFDC484631462A464346BDE8F09F202AB4
:1005100004DB203A00FA02F1002070479140C2F15A
:10052000200320FA03F3194390407047202A06DB8A
:10053000CB17203A41FA02F043EAE07306E041FAB1
:1005400002F3D040C2F1200291400843194670479F
:100550000029A8BF7047401C490008BF20F00100D7
:10056000704710B4B0FA80FC00FA0CF050EA0104B5
:1005700004BF10BC704749B1CCF1200421FA04F447
:1005800011FA0CF118BF012121430843A3EB0C0120
:10059000CB1D4FEA00614FEA102042BF002010BC83
:1005A000704700EBC35010440029A4BF10BC704733
:1005B000401C490008BF20F0010010BC704710B576
:1005C000141E73F1000408DA401C41F10001921876
:1005D0005B411A4301D120F0010010BD2DE9F04D1F
:1005E00092469B4611B1B1FA81F202E0B0FA80F274
:1005F00020329046FFF78BFF04460F4640EA0A0080
:1006000041EA0B0153465A46084313D0114653EAB8
:10061000010019D0C8F14002504600F0E1F805464B
:100620000E46504659464246FFF771FF084305D033
:10063000012004E020463946BDE8F08D0020054346
:1006400046EAE0762C4337430A986305E40AA0EBB8
:1006500008000022FD0A44EA47540A3002D500206F
:100660000146E9E7010510196941DDE9084500196E
:100670006941BDE8F04DA2E72DE9FE4F81EA030490
:1006800004F0004421F0004100944FF0000B23F0EF
:10069000004350EA01045ED052EA03045BD0C3F386
:1006A0000A54C1F30A552C44A4F2F3340194A0FB7C
:1006B0000254C1F3130141F48011C3F3130343F453
:1006C000801301FB024400FB034E840A970A44EAAC
:1006D000815447EA8357A4FB076802958D0A05FBFE
:1006E00007854FEA932C04FB0C542705029D4FEA23
:1006F000065847EA1637B5EB08056EEB070C870E70
:10070000920E47EA811742EA8312A7FB0201B6EB79
:100710000B0164EB00042B0D43EA0C335E1844EB31
:100720001C50DA465146E7FB0201C5F313044FEAB9
:100730000B3343EA14534FEA0432019C43EA0603A5
:10074000A4F10C040294009CCDE900B4FFF746FF2D
:1007500003B0BDE8F08F00200146F9E7C1F30A526B
:10076000C1F3130140F2FF3341F480119A4202DADF
:1007700000200146704740F233439A42A2F23342CE
:1007800002DC524200F02CB8FFF7C1BE30B5041EA7
:1007900071F1000404DB4FF00044404264EB0101BE
:1007A000141E73F1000405DB1C464FF00043524257
:1007B00063EB0403994208BF904230BD064C074DDD
:1007C00006E0E06840F0010394E807009847103421
:1007D000AC42F6D3FFF7B0FC88670008A8670008B2
:1007E000202A04DB203A21FA02F00021704721FA86
:1007F00002F3D040C2F120029140084319467047ED
:1008000070B58C1810F8015B15F0070301D110F8D2
:10081000013B2A1106D110F8012B03E010F8016BFF
:1008200001F8016B5B1EF9D12B0705D40023521E82
:100830000DD401F8013BFAE710F8013BCB1A921CEA
:1008400003E013F8015B01F8015B521EF9D5A142E8
:10085000D8D3002070BD00BFFEE7704751B18200C1
:10086000A2F1C042126842F001038200A2F1C0422C
:10087000136009E08200A2F1C0421268034B1A40E3
:100880008300A3F1C0431A6070470000FEFF0F0011
:10089000D0E901121143C268114302691143426950
:1008A000114382691143C2691143026A1143426ACA
:1008B0001143826A1143C26A1143026B11430268F9
:1008C0009200A2F1C0421160816808290BD1016831
:1008D0008900A1F1C041096841F040020168890026
:1008E000A1F1C0410A60416B0968426B526841EA5C
:1008F0000211426B926841EA0221426B928941EAFD
:100900000241426B128A41EA0251426B127D41EA76
:100910000261426B926911430268521C9200A2F17B
:10092000C0421160C16AB1F5804F1BD1816B09686B
:10093000826B526841EA0211826B926841EA02219D
:10094000826B128A41EA0251826B127D41EA026196
:10095000826B9269114302689200A2F1C042C2F810
:10096000041107E06FF0704201688900A1F1C041F5
:10097000C1F8042170472DE9F04102460025002608
:10098000002000230024002791F803C00CF00F057D
:1009900091F803C00CF0100CBCF1000F03D091F8DB
:1009A00002C04CEA050591F800C0BCF1000F31D03F
:1009B000146800202BE04FF0010C0CFA00F3B1F8A2
:1009C00000C00CEA03069E4220D183004FF00F0CBA
:1009D0000CFA03F7BC4305FA03FC4CEA040491F853
:1009E00003C0BCF1280F06D14FF0010C0CFA00FC3B
:1009F000C2F814C00AE091F803C0BCF1480F05D159
:100A00004FF0010C0CFA00FCC2F810C0401C082882
:100A1000D1D31460B1F800C0BCF1FF0F34DD5468CD
:100A200000202EE000F1080C4FF0010808FA0CF34A
:100A3000B1F800C00CEA03069E4221D183004FF0BA
:100A40000F0C0CFA03F7BC4305FA03FC4CEA040450
:100A500091F803C0BCF1280F05D100F1080C08FA89
:100A60000CF8C2F8148091F803C0BCF1480F07D10C
:100A700000F1080C4FF0010808FA0CF8C2F81080D9
:100A8000401C0828CED35460BDE8F0810246002007
:100A900093680B400BB1012000E0002070474161DA
:100AA00070470161704700BFFEE7000010B50446C3
:100AB0002CB14FF480510548FFF7F1FF04E04FF4EB
:100AC00080510248FFF7EDFF10BD00000014014007
:100AD0000EB50020009001904FF4A073F022014663
:100AE000029000F0A6F80EBD01B502E00098401E8D
:100AF000009000980028F9D108BD2DE9F05F054667
:100B00000E4691469B4600240FFA89F70320A0EB7E
:100B100049000FFA80FA87E0BBF1000F40D0A046F1
:100B20003BE006EB080291B22A1990B200F0B2FB4A
:100B300006EB080291B22A1B90B200F0ABFB32190F
:100B400091B2A5EB080290B200F0A4FB321B91B267
:100B5000A5EB080290B200F09DFBA6EB080291B253
:100B60002A1B90B200F096FBA6EB080291B22A195C
:100B700090B200F08FFB321B91B205EB080290B2ED
:100B800000F088FB321991B205EB080290B200F038
:100B900081FB08F101000FFA80F8B845C1DD2FE0B4
:100BA000F21991B22A1990B200F074FBF21991B2C5
:100BB0002A1B90B200F06EFB321991B2EA1B90B280
:100BC00000F068FB321B91B2EA1B90B200F062FBAE
:100BD000F21B91B22A1B90B200F05CFBF21B91B2A7
:100BE0002A1990B200F056FB321B91B2EA1990B26A
:100BF00000F050FB321991B2EA1990B200F04AFBB2
:100C0000601C04B2BAF1000F05DAA000801D504448
:100C10000FFA80FA07E0E01B80000A3050440FFA18
:100C200080FA781E07B200BFBC427FF775AFBDE8FF
:100C3000F09F2DE9F04706460F4614461D46DDE9B4
:100C4000099ADDF820802B4622463946304600F0CE
:100C500099F94FEAC862120C09F03F0342EA4312C5
:100C60000AF01F0342EA030104FB05F000F031F82B
:100C7000BDE8F08700B597B00121080200F098FCAC
:100C8000012001900420039080060790002002902C
:100C90000490059006900890099008200A90102072
:100CA0000B9000200C900E900F9010904FF48050FD
:100CB0001190002012901390149001A81590169096
:100CC00008A8FFF7E5FD01210020FFF7C7FD17B0D9
:100CD00000BD70B504460D4600262C2000F0F6FA43
:100CE00000BF03E0284600F0F5FA761CA642F9D3CF
:100CF00070BD000008B50121602000F069FC0320F0
:100D00008DF8020018208DF803004FF48040ADF8F4
:100D1000000069465B48FFF72EFE4FF40040ADF837
:100D2000000069465748FFF726FE0120ADF8000095
:100D300069465448FFF71FFE0220ADF800006946DF
:100D40005048FFF718FE8020ADF8000069464E4875
:100D5000FFF711FE4FF48070ADF8000069464A4875
:100D6000FFF709FE4FF40070ADF8000069464648F1
:100D7000FFF701FE4FF48060ADF80000694642487D
:100D8000FFF7F9FD4FF40060ADF8000069463E48FA
:100D9000FFF7F1FD4FF48050ADF8000069463A4886
:100DA000FFF7E9FD4FF40050ADF800006946364802
:100DB000FFF7E1FD4FF48040ADF80000694632488E
:100DC000FFF7D9FD4FF40040ADF8000069462E480A
:100DD000FFF7D1FD4FF48070ADF800006946294857
:100DE000FFF7C9FD4FF40070ADF8000069462548D3
:100DF000FFF7C1FD4FF48060ADF80000694621485F
:100E0000FFF7B9FD03208DF8020018208DF80300CC
:100E10001020ADF8000069461A48FFF7ACFD20200D
:100E2000ADF8000069461748FFF7A5FD8020ADF832
:100E3000000069461348FFF79EFD4FF40060ADF8CF
:100E4000000069460F48FFF796FD10208DF803005B
:100E500003208DF802000220ADF8000069460A4820
:100E6000FFF789FD10208DF8030003208DF80200A4
:100E70004FF48050ADF8000069460248FFF77BFD53
:100E800008BD0000001401400018014070B5044680
:100E90000D462946204600F0F3F900F0C1F9064658
:100EA000304670BD10B50446072C00DD10BD284843
:100EB0000470204604EBD0714910A4EB410139B90C
:100EC000F020244908804FF4A0702349088006E0F0
:100ED0004FF4A0701F490880F0201F490880362079
:100EE00000F0F4F9082141EA441000F0F3F92A2057
:100EF00000F0ECF9002000F0EDF9002000F0EAF934
:100F000014490988491EC1F3072000F0E3F911498B
:100F10000978491EC8B200F0DDF92B2000F0D6F99F
:100F2000002000F0D7F9002000F0D4F90A49098820
:100F3000491EC1F3072000F0CDF907490978491E81
:100F4000C8B200F0C7F92C2000F0C0F900BFADE72F
:100F5000CC010020C8010020CA01002010B5FFF715
:100F6000C9FEFFF787FE0120FFF7A0FD00F074F92E
:100F700000F038F802480078FFF794FF10BD000039
:100F8000CC0100202DE9F04104460D4616461F46CF
:100F90002A2000F09BF9201200F09CF9E0B200F04A
:100FA00099F9A119491EC1F30F2000F093F9A11975
:100FB000491EC8B200F08EF92B2000F087F92812E4
:100FC00000F088F9E8B200F085F9E919491EC1F38B
:100FD0000F2000F07FF9E919491EC8B200F07AF934
:100FE000BDE8F08110B5CF2000F070F9002000F0CE
:100FF00071F9812000F06EF9302000F06BF9ED20DE
:1010000000F064F9642000F065F9032000F062F953
:10101000122000F05FF9812000F05CF9E82000F078
:1010200055F9852000F056F9102000F053F978208A
:1010300000F050F9CB2000F049F9392000F04AF9CE
:101040002C2000F047F9002000F044F9342000F093
:1010500041F9022000F03EF9F72000F037F9202096
:1010600000F038F9EA2000F031F9002000F032F900
:10107000002000F02FF9B12000F028F9002000F046
:1010800029F91B2000F026F9B62000F01FF90A20EC
:1010900000F020F9A22000F01DF9C02000F016F9A0
:1010A000352000F017F9C12000F010F9112000F0F0
:1010B00011F9C52000F00AF9452000F00BF9452090
:1010C00000F008F9C72000F001F9A22000F002F9B1
:1010D000F22000F0FBF8002000F0FCF8262000F0E1
:1010E000F5F8012000F0F6F8E02000F0EFF80F200E
:1010F00000F0F0F8262000F0EDF8242000F0EAF8E7
:101100000B2000F0E7F80E2000F0E4F8092000F0D2
:10111000E1F8542000F0DEF8A82000F0DBF84620CB
:1011200000F0D8F80C2000F0D5F8172000F0D2F825
:10113000092000F0CFF80F2000F0CCF8072000F0D5
:10114000C9F8002000F0C6F8E12000F0BFF8002048
:1011500000F0C0F8192000F0BDF81B2000F0BAF82C
:10116000042000F0B7F8102000F0B4F8072000F0D9
:10117000B1F82A2000F0AEF8472000F0ABF8392093
:1011800000F0A8F8032000F0A5F8062000F0A2F86F
:10119000062000F09FF8302000F09CF8382000F086
:1011A00099F80F2000F096F8362000F08FF8C8204C
:1011B00000F090F82A2000F089F8002000F08AF86A
:1011C000002000F087F8002000F084F8EF2000F005
:1011D00081F82B2000F07AF8002000F07BF8002046
:1011E00000F078F8012000F075F83F2000F072F868
:1011F0003A2000F06BF8552000F06CF8112000F058
:1012000065F80348FFF770FC292000F05FF810BD77
:10121000FCBF020001480088704700000000026027
:1012200070B50024002500262E2000F04FF8FFF7AF
:10123000F1FF0446FFF7EEFF0446FFF7EBFF06461B
:10124000FFF7E8FF0546E012C002A91240EA41108C
:1012500040EAE62070BD000010B502210748FFF704
:101260001EFC40F6FF20FFF73FFC02210348FFF77A
:1012700018FC40F6FF20FFF737FC10BD00180140B6
:1012800070B504460D4601231A4629462046FFF74D
:1012900079FE70BD70B505460C4609480088854248
:1012A0000CDA08480088844208DA21462846FFF70D
:1012B000E7FF054801880120FFF70BFD70BD000026
:1012C000C8010020CA010020D40100204FF0C04115
:1012D00008807047014908807047000000000260E4
:1012E00008B50121142000F073F90120ADF80000C9
:1012F00004208DF8030069460748FFF73CFB4FF4D4
:101300000050ADF8000004208DF803006946034842
:10131000FFF731FB08BD000000080140001001404C
:1013200070B504460D4629462046FFF7AFFB01285D
:1013300008D100BF29462046FFF7A8FB0128F9D0B5
:10134000012070BD0020FCE7024A1080024A118093
:1013500070470000D4010020D601002008B501210B
:10136000082000F035F92020ADF8000010208DF89D
:10137000030003208DF8020069460F48FFF7FBFACF
:101380000120ADF8000069460B48FFF7F4FA02208F
:10139000ADF8000069460848FFF7EDFA202106483D
:1013A000FFF77FFB01210448FFF77BFB0221024886
:1013B000FFF777FB08BD0000000C01401CB5044698
:1013C000062269463B2000F081F89DF801009DF857
:1013D000001040EA012000B220809DF803009DF833
:1013E000021040EA012000B260809DF805009DF8DF
:1013F000041040EA012000B2A0801CBD1CB50446C8
:1014000006226946432000F061F89DF801009DF82E
:10141000001040EA012000B220809DF803009DF8F2
:10142000021040EA012000B260809DF805009DF89E
:10143000041040EA012000B2A0801CBD08B50020C5
:10144000009001226946752000F040F89DF80000E8
:10145000682804D0054800F0E5FA002008BD9DF892
:10146000001003A000F0DEFA0120F7E74067000853
:101470004D505536303530204944203D2025640DEF
:101480000A00000070B50024002500BF06E000251A
:1014900000E06D1CB5F57A7FFBDB641CB4F57A7F48
:1014A000F5DB00216B2000F067F80721192000F020
:1014B00063F806211A2000F05FF800211C2000F0DC
:1014C0005BF818211B2000F057F870BD2DE9F041A2
:1014D00007460C46154601F05FF8D02001F032F8BF
:1014E00001F082F8384601F02DF801F07DF801F0A6
:1014F00053F8D12001F026F801F076F8002606E036
:10150000012000F0F7FF2070641C701CC6B2681E3A
:10151000B042F5DC002000F0EDFF207001F054F83F
:10152000BDE8F0812DE9F84F82460222694641204C
:10153000FFF7CCFF9DF801009DF8001040EA012064
:101540000FFA80FB5846FEF75BFF80460022074BF0
:10155000FEF7E7FE0646064A064BFEF73BFE04464C
:10156000FEF772FFCAF80000BDE8F88F0040754032
:10157000A4703D0AD743424070B505460C4601F0C1
:101580000BF8D02000F0DEFF01F02EF8284600F026
:10159000D9FF01F029F8204600F0D4FF01F024F82B
:1015A00001F012F870BD00BFFEE770477047000001
:1015B00029B1064A52690243044B5A6104E0034AC6
:1015C00052698243014B5A6170470000001002408B
:1015D00029B1064A92690243044B9A6104E0034A26
:1015E00092698243014B9A617047000000100240EB
:1015F00030B500210022002400232D4D6D6805F038
:101600000C0121B1042905D0082923D105E0294D79
:10161000056022E0274D05601FE0254D6D6805F44B
:101620007012234D6D6805F48034022505EB92425B
:101630001CB9214D554305600BE01D4D6D6805F447
:1016400000351DB11C4D5543056002E0194D554351
:10165000056002E0174D056000BF00BF144D6D68C6
:1016600005F0F0010909154D6B5C0568DD4045602A
:101670000F4D6D6805F4E061090A104D6B5C45681B
:10168000DD4085600A4D6D6805F46051C90A0B4D57
:101690006B5C4568DD40C560054D6D6805F44041F3
:1016A000890B074D6B5CC568B5FBF3F5056130BD73
:1016B0000010024000127A0000093D00F0010020F5
:1016C00000020020704710B500F002F810BD0000C5
:1016D0000CB50020019000903348006840F4803041
:1016E0003149086000BF3048006800F400300090C5
:1016F0000198401C0190009818B90198B0F5A06FAE
:10170000F1D12948006800F4003010B101200090A8
:1017100001E0002000900098012843D12348006890
:1017200040F01000214908600846006820F00300DE
:1017300008600846006840F0020008601A484068E7
:10174000194948600846406848600846406840F4C7
:10175000806048600846406820F47C104860084675
:10176000406840F4E81048600846006840F0807027
:10177000086000BF0C48006800F000700028F9D035
:101780000948406820F0030007494860084640685F
:1017900040F00200486000BF0348406800F00C00C1
:1017A0000828F9D10CBD00000010024000200240C2
:1017B0007047000030B51A4800684FF47A72B0FBE9
:1017C000F2F1B1F1807F01D301201DE021F07F40D3
:1017D000401E4FF0E022506150170F22002807DA18
:1017E00013071D0E0F4B00F00F04241F1D5503E0BF
:1017F00013071C0E0C4B1C5400BF00204FF0E022BE
:10180000906107201061002008B100BFFEE74FF093
:10181000E020006920F001004FF0E021086130BDB8
:101820000402002018ED00E000E400E010B51348C9
:10183000006840F0010011490860084640681049FE
:1018400008400E494860084600680E4908400B49A8
:1018500008600846006820F4802008600846406858
:1018600020F4FE0048604FF41F008860FFF72BFF54
:101870004FF000600449086010BD000000100240F5
:101880000000FFF8FFFFF6FE08ED00E021B18289BD
:1018900042F40052828104E082894DF6FF731A40BF
:1018A0008281704700B585B001210420FFF790FECA
:1018B00001218803FFF78CFE4FF40070ADF8100093
:1018C00018208DF8130003208DF8120004A9134886
:1018D000FFF751F84FF48060ADF8100004208DF848
:1018E000130004A90D48FFF746F84FF4E1300090CB
:1018F0000020ADF80400ADF80600ADF80800ADF822
:101900000C000C20ADF80A006946054800F018F8F4
:1019100001210348FFF7BAFF05B000BD00080140F0
:101920000038014002460020B1F5007F00D100BF21
:1019300013880B400BB1012000E00020704700002D
:101940002DE9F04786B005460E460024A24600BFAA
:10195000A1460027B08900B100BF2F462C8A4CF663
:10196000FF700440F08804432C82AC894EF6F310DB
:101970000440B08831890843718908430443AC812D
:10198000AC8A4FF6FF400440B0890443AC8201A802
:10199000FFF72EFE1F48874202D1DDF810A001E0BC
:1019A000DDF80CA0A88900F4004040B10AEBCA00A1
:1019B00000EB0A1031684900B0FBF1F807E00AEBD0
:1019C000CA0000EB0A1031688900B0FBF1F864200E
:1019D000B8FBF0F004012009642101FB1089A889FB
:1019E00000F4004040B1322000EBC900B0FBF1F040
:1019F00000F00700044308E0322000EB09106421E6
:101A0000B0FBF1F000F00F0004432C8106B0BDE8FC
:101A1000F087000000380140C1F30802828070475F
:101A200000BFFEE70FB4054B10B503A9044A0298A6
:101A300000F0DAF810BC5DF814FB00001124000877
:101A40001C02002002E008C8121F08C1002AFAD1B7
:101A500070477047002001E001C1121F002AFBD12E
:101A6000704700002DE9FF5F82B00021DDE90430FE
:101A7000020DDDF840B0034318D044F61050A2F236
:101A8000FF3242431514119801281FD0A5EB0B001B
:101A9000401C5FEA000A4FF000064E4FDFF8389115
:101AA000B046504615D5CAF1000413E01198012440
:101AB0004AA3012801D16FEA0B010298119AC0E9EB
:101AC0000031C0E9024206B0BDE8F09FCBF1000052
:101AD000DFE704460021404A491842EB0450CDE9B3
:101AE000001012E0E00707D032463B464046494628
:101AF000FEF7C2FD8046894632463B4610461946EF
:101B0000FEF7BAFD06460F466410002CEAD1DDE967
:101B10000401DDE90023BAF1000F06DAFEF7ACFD9F
:101B200042464B46FEF7A8FD05E0FEF7FAFB4246AB
:101B30004B46FEF7F6FB04460E460022284BFEF706
:101B400025FE03D84FF0FF30014607E00022254B69
:101B500020463146FEF73EFBFEF700FE102409E06A
:101B6000002C0ADB0A220023FEF7A0FC039B303284
:101B70001A55641E50EA0102F2D1641C039AC4F1A2
:101B800011031444119A012A03D0012208430DD1F4
:101B90000AE0084304D000204FF0110B119072E7C7
:101BA000A3EB0B056D1E0DE05B4504DD4FF000025D
:101BB00005F1010504E003DA4FF00002A5F101058B
:101BC000002AECD002981199C0E90231C0E9004521
:101BD00079E70000000014400000F03F30000000F2
:101BE0000000F0430000E03F2DE9FF4F95B09B4619
:101BF0008946064600250FE2252877D1002427468E
:101C0000F84A0121059400E0044316F8013F203B07
:101C100001FA03F01042F7D130782A2811D06FF082
:101C20002F033078A0F13002092A16D8059A44F023
:101C3000020402EB820203EB42021044761C059080
:101C4000EFE759F8042B0592002A03DA504244F4D6
:101C50000054059044F00204761C30782E2816D1EA
:101C600016F8010F44F004042A280DD06FF02F025B
:101C70003078A0F13003092B09D807EB870302EB7A
:101C80004303C718761CF3E759F8047B761C3078B9
:101C90006C280FD006DC4C2817D068280DD06A2895
:101CA00014D104E0742810D07A280FD10DE044F448
:101CB00000140AE044F4801401E044F44014727803
:101CC000824202D104F58014761C761C3078662896
:101CD0000BD013DC582877D009DC002875D04528B4
:101CE000F6D04628F4D047281AD19DE118E06328A1
:101CF00035D0642879D0652812D195E1702873D049
:101D000008DC6728F1D069286FD06E280DD06F28C5
:101D100006D1B5E073282CD0752875D0782874D0FA
:101D20005A46179990476D1C75E1C4F3025002287A
:101D300009D003280DD0D9F8001004280DD00D606B
:101D400009F1040967E1D9F80010EA17C1E9005266
:101D5000F6E7D9F800100D80F2E70D70F0E719F8FA
:101D6000041B8DF8001000208DF80100EA460120C8
:101D700003E059F804AB4FF0FF3061074FF000016A
:101D800002D40DE008F101018846B9420FDA80451E
:101D9000F8DB1AF808100029F4D108E008F1010175
:101DA00088468142FADB1AF808100029F6D1059816
:101DB0005B46A0EB080721463846179A00F094FAD4
:101DC000284400EB080507E04DE029E10DE01AF892
:101DD000010B5A4617999047B8F10108F7D25B46B4
:101DE00021463846179A13E142E00A220092C4F3D2
:101DF00002524FF0000A022A08D059F804CB032AF5
:101E00004FEAEC710AD00DE029E02AE009F1070160
:101E100021F00702F2E802C1914609E00FFA8CFCBA
:101E20004FEAEC71042A03D14FFA8CFC4FEAEC71B3
:101E3000002907DA0A460021DCF1000C61EB0201FF
:101E40002D2202E0220504D52B228DF80420012248
:101E500003E0E20701D02022F7E7904659E00A218B
:101E600002E010220DE010214FF0000A00910BE07B
:101E700010224FF0000A44F004040827009203E007
:101E800008224FF0000A0092C4F30252022A05D041
:101E900059F804CB0021032A08D009E009F1070111
:101EA00021F00702F2E802C1914605E01FFA8CFC1E
:101EB000042A01D10CF0FF0C4FF00008220728D5AE
:101EC000702806D0009B83F0100353EA0A0305D064
:101ED0000EE040228DF80420012208E05CEA0102B5
:101EE00006D030228DF804208DF80500022290469D
:101EF000009B83F0080353EA0A030AD15CEA01025B
:101F000001D1620705D530228DF804204FF0010879
:101F10007F1E582804D034A003900EA802900DE034
:101F200036A0F9E753466046009AFEF7BFFA8446AA
:101F30000398825C0298401E029002705CEA0100E5
:101F4000F0D1029806A9081A00F1200A600702D50C
:101F500024F4803400E00127574502DDA7EB0A0096
:101F600000E0002000EB0A01009005984144401A6F
:101F70000590E00306D45B462146179A059800F0C9
:101F8000B3F90544002706E001A85A46C05D179939
:101F900090476D1C7F1C4745F6DBE0030CD55B4684
:101FA0002146179A059800F09FF9054404E0302077
:101FB0005A46179990476D1C0099481E00900029B9
:101FC000F5DC08E0029802995A460078491C029113
:101FD000179990476D1CBAF10001AAF1010AF1DCD2
:101FE00065E10000092801003031323334353637DD
:101FF0003839616263646566000000003031323355
:1020000034353637383941424344454600000000F4
:1020100000F058F90544761C307800287FF4ECADC8
:1020200019B02846BDE8F08F620700D4062709F1F1
:10203000070222F0070CFCE80223E14603F0004807
:102040005FEA080C02D00FF2702C0DE05FEA045C2E
:1020500002D50FF2682C07E05FEAC47C02D00FF2D1
:10206000602C01E0AFF2700C4FF0FF3823F000431A
:10207000CDF850C065280CD006DC452809D046288C
:102080001DD047283DD13DE0662818D067287ED175
:1020900038E00021112F01DB112000E0781CCDE990
:1020A000000106A90EA8FFF7DDFCDDE90F010E9A7D
:1020B00003910021009207F1010A04914DE04FF0D5
:1020C00000400097CDE9011006A90EA8FFF7CAFC51
:1020D000DDE90F0203920E9B11990022DDF80CA09E
:1020E0000093049211B9791C00EB010AB7EB0A00C6
:1020F00004D4C0F1FF3007F1010A0490AAEB0700F5
:10210000019044E0012F00DA01270021112F01DDA9
:10211000112000E03846CDE9000106A90EA8FFF71E
:10212000A1FCDDE90F010E9A0391002104910092B8
:10213000BA4621070CD40399514500DA8A46BAF110
:10214000010F05DD009AAAF10101515C302908D088
:10215000B84202DA10F1040F06DA0121CDE90110CC
:1021600015E0AAF10101E9E7002805DC0499014422
:102170000491AAEB000102E0411C514500DD8A46B2
:102180000499401A401C01904FF000400290200733
:1021900004D40198504501DBCDF8048000208DF86F
:1021A0004F0002980DF14F07B0F1004F25D02B20C2
:1021B0000E9002984FF0020800280CDA404202907C
:1021C0002D200E9007E00A210298FEF759F93031D0
:1021D000029007F8011DB8F10001A8F10108F2DC36
:1021E00002980028EFD1791E0E980870307800F020
:1021F000200040F0450007F8020D12A8C01B00F1B6
:1022000007081498007800B1012000EB0A0101983A
:1022100001EBE07105984144401A401E0590E0032F
:1022200006D45B462146179A059800F05DF80544F0
:102230001498007818B15A46179990476D1CE0031E
:1022400024D55B462146179A059800F04DF80544C1
:102250001CE00498002807DBDDE90301884203DD68
:102260000098405C179901E0179930205A46904732
:10227000049805F10105401C04900198401E01904E
:1022800004D12E205A46179990476D1CBAF10001CF
:10229000AAF1010ADDDC05E017F8010B5A4617998F
:1022A00090476D1CB8F10001A8F10108F4DC5B4611
:1022B0002146179A0598ABE62D0000002B00000080
:1022C000200000002DE9F041044600251E46174677
:1022D000880404D405E039462020B0476D1C641EF4
:1022E000F9D52846BDE8F0812DE9F04104460025E6
:1022F0001E469046C80301D5302700E020278804F9
:1023000004D505E041463846B0476D1C641EF9D53A
:102310002846BDE8F08100002DE9FE4F39480068ED
:10232000A0F1080738480068A0F1080800200090D4
:1023300001900290B8F1000F01DD424600E000225A
:1023400091B2002F01DD3A4600E0002290B2102346
:102350001A46FEF76EFC00214FF47840FEF7F4FFBA
:10236000294A128891B2274A128890B20123022288
:10237000FEF7C3FB002440E0601C00F00106354678
:1023800038E004EBC40000EB441020490844405DF1
:1023900023282ED1012E16D1FF200090019004EBAE
:1023A000D472521002EB82025204110C05EBD5726A
:1023B000521002EB820252040290100C02230A22F5
:1023C000FEF737FC15E0FF200090019004EBD4727B
:1023D000521002EB82025204110C05EBD57252101E
:1023E00002EB820252040290100C0A230222FEF732
:1023F00020FCAD1C292DC4DB641C292CBCDBBDE8F2
:10240000FE8F00000400002008000020600800206B
:1024100070B504460D46E1B20548FFF7FDFA00BF6E
:1024200080210348FFF77EFA0028F9D0204670BDCE
:102430000038014010B50446074850F82400A04277
:1024400001D1204610BD044951F82400FFF7F2FFE6
:10245000014941F82400F5E72002002010B5802052
:102460000949086000F012F840200749091F086078
:1024700000F00CF840200449086000F007F88020C4
:102480000149091F086010BD140C0140002001E043
:10249000411CC8B20A28FBDB7047000008B50121C7
:1024A0000820FFF795F8C020ADF8000003208DF854
:1024B000020014208DF8030069460348FEF75BFA1A
:1024C00000F082F808BD0000000C014010B580202B
:1024D00007490860FFF7DAFF402005490860FFF769
:1024E000D5FF40200249091D0860FFF7CFFF10BD4E
:1024F000100C014070B505460024002616E0600669
:10250000040E40200E490860FFF7C0FF0C48083851
:10251000006800F0800008B1601CC4B24020084987
:10252000091D0860FFF7B2FF701CC6B2082EE6DB7B
:1025300015B9FFF7CBFF01E0FFF790FF204670BD14
:10254000100C014070B50446002520E004F0800026
:1025500018B180200F49086003E080200D49091D53
:102560000860FFF793FF40200A490860FFF78EFFDD
:1025700040200849091D0860072D02D18020091F4D
:1025800008606006040EFFF781FF681CC5B2082DC5
:10259000DCDB70BD100C014010B5802009490860DB
:1025A00040200860FFF772FF80200649091D08607F
:1025B000FFF76CFF40200349091D0860FFF766FF25
:1025C00010BD0000100C014010B5802005490860C6
:1025D0004020091F0860FFF759FF80200149091FAB
:1025E000086010BD140C014010B580200C49086033
:1025F000FFF74CFF40200A490860FFF747FF0848F3
:102600000838006800F0800008B1012400E00024D0
:1026100040200349091D0860FFF738FF204610BD20
:10262000100C014086B0FEF799FCFEF797FE2020C3
:1026300086490860012008600220091D0860FFF734
:1026400031F9FEF74DFEFFF729FFFEF71BFFFFF7FD
:10265000B1F84FF0E020006940F001004FF0E021B8
:102660000861FEF735FA00F03BF9FFF755FE00F080
:1026700081FAFEF7E3FE0446E7E0012C3BD1744803
:10268000006858B97148001F006880F001006F4968
:10269000091F08604FF47A706D4908606C48406803
:1026A000002834D104A8FEF789FEBDF91430BDF925
:1026B0001220BDF9101067A0FFF7B4F902A8FEF7C9
:1026C0009DFEBDF90C30BDF90A20BDF9081068A0C7
:1026D000FFF7A8F901A8FEF725FF0198FDF7A1FE75
:1026E00005462A460B4668A0FFF79CF94FF4FA709E
:1026F000574948600BE068A0FFF794F92020534940
:10270000091D08600120091F0860022008600121DE
:102710006948FEF705FE01280CD168490968481C84
:10272000C11700EB91718910A0EB8101634A116020
:1027300000F020FA4FF400516148FEF7F1FD012846
:102740007ED160485D49096850F821005E490968FA
:102750000844002879DB5B485849096850F8210093
:10276000594909680844F0286FDC584853490968FA
:1027700050F82100564909680844002865DB534891
:102780004E49096850F82100514909680844B0F5DC
:10279000A07F5ADC4D4A494B1B6832F823204C4B32
:1027A0001B881A4491B2474A444B1B6832F82320D5
:1027B000454B1B881A4490B2FEF768FB0546434818
:1027C0003E4B1B6850F82300414B1B68C2183D4824
:1027D0003A4B1B6850F823003B4B1B68C1182B4633
:1027E0003CA0FFF71FF9394A344B1B6832F823200D
:1027F000374B1B881A4491B2324A304B1B6832F86F
:102800002320314B1B881A4490B2FEF73FFB4FF652
:10281000FF71884219D02B482849096850F82100D7
:102820002949096808442849086028482349096853
:1028300050F821002649096808442549086000E04D
:1028400003E0FFF769FD00F095F916E7100C014071
:10285000C00100200D0ABCD3CBD9B6C8A3BA20252D
:1028600038642538642538642020202000000000CA
:10287000CDD3C2DDD2C7A3BA20253864253864255C
:102880003864202020200000CEC2B6C8A3BA20257C
:10289000382E3266000000000D0AC3BBD3D0BCEC5A
:1028A000B2E2B5BD4D505536303530B4ABB8D0C6B8
:1028B000F7A3A10D0A000000000801402C00002031
:1028C000001001400C000020040000201C0000202B
:1028D0000800002025642025642025640A000000EB
:1028E0002DE9F041232240F291619E48FDF760FC02
:1028F00000201EE0002119E000EB800201EB8202C3
:1029000000EB800301EB8303974C44F82320202243
:10291000012303EB400303EBC30404EB4313914C8B
:102920002344012404EB41041A55491C1429E3DB18
:10293000401C1428DEDB00203FE000213AE08B4AF7
:10294000126802EB82028A4B43F82200874A12681F
:1029500002EB820203EB82025160844A126802EBAE
:10296000820203EB820290604A1C804B1B6803EBDF
:1029700083037F4C04EB8303DA602322012303EB00
:10298000400303EBC30404EB4313764C23440224BB
:1029900004EB41041A550022744B1B6803EB8303BC
:1029A000734C04EB83031A61704A1268521C6F4B1C
:1029B0001A60491C1329C2DB401C1428BDDB00200F
:1029C00040E000213BE0694A126802EB8202684B5A
:1029D00043F82210654A126802EB820203EB82027E
:1029E00050604A1C614B1B6803EB8303604C04EB93
:1029F00083039A605D4A126802EB8202234603EB6E
:102A00008202D0602322022303EB410303EBC304C1
:102A100004EB4313534C2344012404EB40041A55A4
:102A20000122524B1B6803EB8303514C04EB8303DD
:102A30001A614E4A1268521C4C4B1A60491C1329E9
:102A4000C1DB401C1428BCDB85E0FDF78DFB47494A
:102A5000096890FBF1F201FB120404EB8401444A83
:102A600002EB8101C96804EB8402414B03EB820253
:102A7000926802EB820201EB8200FFF7DBFC064664
:102A800004EB84013A4A02EB8101496804EB8402B9
:102A9000374B53F8222002EB820201EB8200FFF752
:102AA000C9FC0746BE423CD02F4840F8267004EBD4
:102AB00084002F4901EB80000069C8B9202104EB94
:102AC00084002B4A52F82000012202EB400000EB68
:102AD000C00202EB4010234A024404EB8400244B62
:102AE00003EB80004068022303EB4000115418E020
:102AF000202104EB84001E4A52F82000022202EB3F
:102B0000400000EBC00202EB4010164A024404EB06
:102B10008400174B03EB80004068012303EB400067
:102B20001154651C0DE005EB8502114B03EB82018E
:102B30006A1E02EB820203EB82001422FDF726FBE1
:102B40006D1C0A4800688542EDDB08480068401E9D
:102B50000649086000BF0548006800287FF475AF8B
:102B6000BDE8F08160080020200200200000002065
:102B7000F40E0020FEB500242AE0002525E01648CA
:102B8000006800EBC00101EB0010144901EB80006C
:102B900004EB840100EB810050F82500012801D1ED
:102BA000FF2000E000200646009601964FF4917247
:102BB00002EB850291B2322202EB840290B204232E
:102BC0001A460296FEF735F86D1C052DD7DB641CFE
:102BD000052CD2DBFEBD00002C00002030000020C0
:102BE00000000000000000000000000000000000E5
:102BF000000000181818181818080008180000001D
:102C00000000003424242400000000000000000024
:102C10000000000016247F2424247E2424000000C9
:102C2000000000083E6848681C1612127C10100054
:102C300000000061D296740810162949C6000000F1
:102C4000000000003C646438724ACE467F000000F9
:102C50000000001818181800000000000000000014
:102C600000000004081810303030301010180C0428
:102C7000000000201008080C0404040C08181020A0
:102C8000000000080A341C6A080000000000000070
:102C90000000000000001818187F18181800000025
:102CA00000000000000000000000001818083000BC
:102CB0000000000000000000003C000000000000D8
:102CC00000000000000000000000001818000000D4
:102CD0000000000206040C0808101020204000002C
:102CE000000000003C6642475B7342663C00000007
:102CF0000000000018784808080808087E00000056
:102D0000000000003C460606040810207E0000007B
:102D1000000000007C0606043C0202067C00000065
:102D2000000000000C1C14246444FF040400000094
:102D3000000000007E6060607E0202067C000000F1
:102D4000000000001E306048764242623C000000F5
:102D5000000000007E0206040C081810300000007D
:102D6000000000003C6242361C6642423C0000000B
:102D7000000000003C664242661A0204780000002F
:102D800000000000000018180000001818000000E3
:102D9000000000000000181800000018180830009B
:102DA00000000000000004183060100C0600000055
:102DB00000000000000000007E007E000000000017
:102DC000000000000000301804060C102000000075
:102DD000000000301C06060618100010100000004D
:102DE0000000001C224141DDB5A5A5AF94C0403CC8
:102DF00000000000181C342426627E43C10000003D
:102E0000000000007C4642467C4242427C000000BA
:102E1000000000001E204040404040603E00000096
:102E2000000000007C4642434343424678000000D5
:102E3000000000007E6060607E6060607E000000D8
:102E4000000000007E6060607E60606060000000E6
:102E5000000000001E604040CE4242623E00000082
:102E600000000000424242427E42424242000000D4
:102E7000000000007E181818181818187E000000AE
:102E8000000000007C0404040404044478000000F2
:102E9000000000004244485070584C44420000007A
:102EA0000000000020202020202020203E000000E4
:102EB000000000006266675F5B5BC1C1C10000008B
:102EC00000000000626272525A4A4E4646000000FC
:102ED000000000003C6243C3C3C343623C000000E7
:102EE000000000007C46424246784040400000001E
:102EF000000000003C6243C3C3C343623C180F00A0
:102F0000000000007C6662667C6C64666200000003
:102F1000000000003E6040601C0602027C000000D1
:102F2000000000007F181818181818181800000062
:102F30000000000042424242424242623C00000025
:102F400000000000C14342622624341C1800000027
:102F500000000000C1C141495B5B7666660000006D
:102F60000000000043663418181C2466C3000000EB
:102F700000000000C14266341C1818181800000038
:102F8000000000007E02040C181020607E0000008B
:102F90000000001C10101010101010101010101C49
:102FA000000000402020101008080C040602000059
:102FB0000000003C0C0C0C0C0C0C0C0C0C0C0C3C15
:102FC00000000000181C2462000000000000000047
:102FD000000000000000000000000000000000FFF2
:102FE00000000020100000000000000000000000B1
:102FF0000000000000003C06023E42467A0000004D
:103000000000004040405C62424242427C000000BE
:103010000000000000001E20604060203E00000014
:103020000000000202023E62424242663A00000094
:103030000000000000003C62427E40603E00000054
:103040000000000F1810107E10101010100000006B
:103050000000000000003F66426658403E43423C8C
:103060000000004040405C62424242424200000098
:103070000000001818007808080808087E00000002
:10308000000000040C007C040404040404040C7814
:10309000000000606060626C78706864620000002C
:1030A0000000007808080808080808087E000000EA
:1030B000000000000000764B4B4B4B4B4B000000D8
:1030C0000000000000005C624242424242000000F8
:1030D0000000000000003C62424342623C000000ED
:1030E0000000000000005C62424242427C404040DE
:1030F0000000000000003E62424242663A020202C4
:103100000000000000006E726360606060000000FC
:103110000000000000003E20203C06027C00000071
:10312000000000001010FE10101010101E00000013
:103130000000000000004242424242663A000000A5
:10314000000000000000434266243418180000000C
:10315000000000000000C1C15B5A5E66660000000E
:1031600000000000000062261C181C2662000000FF
:1031700000000000000043426624341C181830E0B0
:103180000000000000007E060C1810207E000000E9
:103190000000000E18101010307010101010180ED3
:1031A00000000808080808080808080808080808AF
:1031B00000000030180808080C0E0808080818302D
:1031C0000000000000000000714B0600000000003D
:1031D00000000000000000000000000000000000EF
:1031E00000000000000000000000000000000000DF
:1031F00000000000000000000000000000000000CF
:103200000000000000000000000003800180018039
:103210000180018001800180018001800180000027
:10322000000003C003C00000000000000000000018
:10323000000000000000000000000E700E700E7014
:103240000C30000000000000000000000000000042
:10325000000000000000000000000000000000006E
:103260000000000000000000000000000618063802
:1032700006307FFE0C300C300C300C307FFE0C60C2
:103280001C601860186000000000000000000000D2
:10329000000000000000000000C000C00FF83CC8A3
:1032A00031C031803D801F8003F001F8031C030C06
:1032B000031C3FF83FE0070006000000000000008C
:1032C00000000000000000001C007E0E630C63186C
:1032D00063307E6000C001800300077C0EE61CC6E0
:1032E00018C630C6607C000000000000000000002E
:1032F000000000000000000000000FE01CF038702B
:1033000038701C601FC00F003F8C71CC60EC607C7B
:1033100070383CFC1FCE00000000000000000000E0
:103320000000000000000000000003C001800180D8
:10333000018000000000000000000000000000000C
:10334000000000000000000000000000000000007D
:103350000000000000000000003000E001C001801B
:1033600003000700060006000E000E000E000E000F
:10337000060007000300038001C000E000300000E9
:1033800000000000000000000C0006000380018027
:1033900001C000E00060006000700070007000601C
:1033A000006000E000C00180038006000C00000007
:1033B00000000000000000000000018011881DB81E
:1033C00003C007E03DBC0188018000000000000050
:1033D00000000000000000000000000000000000ED
:1033E00000000000000000000000000000000000DD
:1033F000018001800180018001807FFE01800180C9
:1034000001800180000000000000000000000000BA
:1034100000000000000000000000000000000000AC
:10342000000000000000000000000000000000009C
:1034300003C003C001C001C003801F0000000000E2
:10344000000000000000000000000000000000007C
:10345000000000000000000000000FF0000000006D
:10346000000000000000000000000000000000005C
:10347000000000000000000000000000000000004C
:10348000000000000000000000000000000000003C
:1034900003C003C003C000000000000000000000E3
:1034A000000000000000000000000018003800309C
:1034B000006000E000C001C00180030003000600BE
:1034C0000E000C001C00180030000000000000007E
:1034D0000000000000000000000001800FF01C3818
:1034E000381C301C707E70EE738E7E0E7C0C300C9F
:1034F000381C1E780FE000000000000000000000F3
:1035000000000000000000000000000007C01FC015
:1035100039C001C001C001C001C001C001C001C06B
:1035200001C03FFC3FFC0000000000000000000064
:103530000000000000000000000003801FF01838A9
:103540000038001800380038007001E003800700E0
:103550001C003FFC3FFC00000000000000000000D9
:103560000000000000000000000007801FF000388D
:1035700000380038003007E007F00038001C001C5D
:10358000001820F83FE000000000000000000000EC
:1035900000000000000000000000000000F001B08A
:1035A000033007300E301C30383070307FFE7FFE25
:1035B000003000300030000000000000000000007B
:1035C0000000000000000000000000001FF81800CC
:1035D0001800180018001FE000F8001C001C001C58
:1035E000003800F01FC000000000000000000000D4
:1035F00000000000000000000000000003F80F00C1
:103600001C001800300037F83C3C300C300C380CF3
:10361000381C1E380FF00000000000000000000001
:103620000000000000000000000000003FFC001C43
:10363000001800380070006000E001C001800380C5
:10364000070006000E00000000000000000000005F
:103650000000000000000000000003C01FF8381C3C
:10366000381C381C1C380FF007F01C78381C300C44
:10367000381C3C380FF00000000000000000000083
:103680000000000000000000000003801FF0383838
:10369000301C701C700C380C1FFC0FCC001C001868
:1036A00000701FE01F80000000000000000000000C
:1036B000000000000000000000000000000000000A
:1036C000000003C003C001800000000000000000F3
:1036D00003C003C003C000000000000000000000A1
:1036E00000000000000000000000000000000000DA
:1036F000000003C003C001800000000000000000C3
:1037000003C003C001C001C003800F00000000001F
:1037100000000000000000000000000000000000A9
:10372000003800F001C007001E0038000E000780BE
:1037300001C0007000300000000000000000000028
:103740000000000000000000000000000000000079
:103750000000000000003FFC000000003FFC3FFCB8
:103760000000000000000000000000000000000059
:103770000000000000000000000000000000000049
:103780001C000F00038001E00078001C007001E0C5
:1037900003800E000C00000000000000000000008C
:1037A000000000000000000000000FC000F0003822
:1037B00000380038003803F00380030003000000E5
:1037C00000000780078000000000000000000000EB
:1037D000000000000000000000E007F80C0C1806D4
:1037E0003006700363F36633C673CC63CC62CC6679
:1037F000CCE6C7FCE0006000700038101FF000004D
:1038000000000000000000000000000003C007E00E
:1038100006E00E700E700C301C3818183FFC3FFC90
:10382000700E600EE00700000000000000000000C5
:103830000000000000000000000000003FF03838E9
:10384000381C381C38383FF03FF8381C380C380C1E
:10385000381C3FF83FE000000000000000000000BE
:103860000000000000000000000000E007FC1E0453
:1038700038003800300070007000700030003800F0
:103880003C001F9C07FC000000000000000000003E
:103890000000000000000000000000003FF0307851
:1038A000301C300C300E300E300E300E300E301C0E
:1038B00030383FF03FC00000000000000000000072
:1038C0000000000000000000000000001FF81800C9
:1038D0001800180018001FF81FF81800180018002A
:1038E00018001FF81FF80000000000000000000092
:1038F0000000000000000000000000001FF8180099
:103900001800180018001FF81FF8180018001800F9
:10391000180018001800000000000000000000005F
:103920000000000000000000000000F007FC1E0482
:10393000380030007000700070FC700C700C300C9F
:10394000380C1F1C07FC00000000000000000000F5
:10395000000000000000000000000000300C300CEF
:10396000300C300C300C3FFC3FFC300C300C300C79
:10397000300C300C300C0000000000000000000093
:103980000000000000000000000000003FFC01807B
:10399000018001800180018001800180018001801F
:1039A00001803FFC3FFC0000000000000000000020
:1039B0000000000000000000000000001FF00030C8
:1039C0000030003000300030003000300030003077
:1039D00000701DE01FC0000000000000000000009B
:1039E000000000000000000000000000381C3870DB
:1039F00038E039C03B803F003F003B8039C038E0B1
:103A000038703838381C000000000000000000004A
:103A10000000000000000000000000001C001C006E
:103A20001C001C001C001C001C001C001C001C00B6
:103A30001C001FFC1FFC0000000000000000000034
:103A4000000000000000000000000000381C7C3C6A
:103A50006C3E6E6E666E66CE63C663866186600679
:103A60006006600660060000000000000000000024
:103A70000000000000000000000000003C0C3C0CB6
:103A80003E0C360C330C338C318C31CC30EC306C3A
:103A9000307C303C301C00000000000000000000C2
:103AA0000000000000000000000001C00FF81C3CF6
:103AB000381C700E700E60066006700E700E700C72
:103AC000381C1E780FE0000000000000000000001D
:103AD0000000000000000000000000003FF0383C43
:103AE000381C380C380C381C38783FE03800380067
:103AF000380038003800000000000000000000001E
:103B00000000000000000000000001C00FF81C3C95
:103B1000381C700E700E60066006700E700E700C11
:103B2000381C1E780FE0018001C000FF003C00003F
:103B30000000000000000000000000003FF03838E6
:103B400038183818383838F03FC038E0387038380E
:103B50003838381C380E000000000000000000005B
:103B60000000000000000000000001E00FF8380035
:103B7000380038003C001F8003F00078001C001C57
:103B8000001C38783FE0000000000000000000004A
:103B90000000000000000000000000007FFE018027
:103BA000018001800180018001800180018001800D
:103BB0000180018001800000000000000000000082
:103BC000000000000000000000000000300C300C7D
:103BD000300C300C300C300C300C300C300C300C05
:103BE000381C1C380FF0000000000000000000002E
:103BF000000000000000000000000000E006700E61
:103C0000700E381C381C1C181C380C300E700660E6
:103C100007E003C003C00000000000000000000037
:103C200000000000000000000000000060066006C8
:103C3000600660066186638673C673CE766C366CEA
:103C40003C3C3C3C381C0000000000000000000030
:103C5000000000000000000000000000301C3818C8
:103C60001C380E7007E003C003C007E00E701C385C
:103C70001838381C700E0000000000000000000022
:103C8000000000000000000000000000700E700C3A
:103C9000381C1C380E70066007E003C001800180EC
:103CA0000180018001800000000000000000000091
:103CB0000000000000000000000000003FFC001CAD
:103CC0000038007000E001C0038007000E000C0007
:103CD00018003FFC3FFC0000000000000000000056
:103CE000000000000000000007F007F006000600DA
:103CF0000600060006000600060006000600060094
:103D000006000600060006000600060007F0000098
:103D10000000000000000000000018001C000C0063
:103D20000600070003000380018001C000C000609E
:103D30000070003000380018000C00000000000087
:103D400000000000000000000FE00FE000600060D5
:103D50000060006000600060006000600060006063
:103D60000060006000600060006000600FE0000024
:103D700000000000000000000000000003C006C0BA
:103D800006600C301818301C000000000000000015
:103D90000000000000000000000000000000000023
:103DA0000000000000000000000000000000000013
:103DB0000000000000000000000000000000000003
:103DC000000000000000000000000000FFFF0000F5
:103DD000000000000000000000001E000380000042
:103DE00000000000000000000000000000000000D3
:103DF00000000000000000000000000000000000C3
:103E000000000000000000000000000000000000B2
:103E100000001FF01038001C001C0FFC1C1C381C7C
:103E2000381C3CFC1FDC000000000000000000000B
:103E300000000000000000000000380038003800DA
:103E400038003BF83E1C3C1C380C380C380C380C45
:103E5000381C3C781FE0000000000000000000005B
:103E60000000000000000000000000000000000052
:103E7000000007F80E001C00380038003800380039
:103E80001C000F1807F800000000000000000000F0
:103E900000000000000000000000001C001C001CCE
:103EA000001C0FFC1C1C381C301C301C301C301C2F
:103EB000383C1CFC0F9C00000000000000000000CB
:103EC00000000000000000000000000000000000F2
:103ED00000000FF01C38381C300C3FFC3000300064
:103EE00038001E0C07FC000000000000000000006D
:103EF0000000000000000000003C01FE0380030001
:103F0000030003007FFC7FFC0300030003000300A9
:103F10000300030003000000000000000000000098
:103F20000000000000000000000000000000000091
:103F300000000FFE1C383818381818381FF03B8066
:103F400030003FF01FFC300E700E381C1FF80000D0
:103F500000000000000000000000380038003800B9
:103F600038003BF83E383C1C381C381C381C381CC8
:103F7000381C381C381C0000000000000000000045
:103F80000000000000000000018003C003C000002A
:103F900000001FC001C001C001C001C001C001C0BC
:103FA00001C001C03FFC0000000000000000000054
:103FB0000000000000000000002000700070000001
:103FC00000003FF000700070007000700070007022
:103FD0000070007000700070007020E03FC00000B2
:103FE0000000000000000000000018001800180089
:103FF0001800183C187018E01B801F001B8019E087
:1040000018701838181C00000000000000000000A4
:10401000000000000000000000001FC001C001C03F
:1040200001C001C001C001C001C001C001C001C088
:1040300001C001C03FFC00000000000000000000C3
:104040000000000000000000000000000000000070
:1040500000006F3C79EE71CE718E718E718E718E13
:10406000718E718E718E0000000000000000000053
:104070000000000000000000000000000000000040
:1040800000003BF83E383C1C381C381C381C381CDF
:10409000381C381C381C0000000000000000000024
:1040A0000000000000000000000000000000000010
:1040B00000000FF01C3C381C700E700E700E700C5F
:1040C000381C1E780FE00000000000000000000017
:1040D00000000000000000000000000000000000E0
:1040E00000003BF83E1C3C1C380C380C380C380CDB
:1040F000381C3C783FE038003800380038000000B9
:1041000000000000000000000000000000000000AF
:1041100000000FFC1C1C381C301C301C301C301CD8
:10412000383C1CFC0F9C001C001C001C001C0000E8
:10413000000000000000000000000000000000007F
:10414000000019F81F1C1C0C180E1800180018008D
:104150001800180018000000000000000000000017
:10416000000000000000000000000000000000004F
:1041700000000FF81C0018001E000FC001F8001806
:10418000001818381FF000000000000000000000B8
:104190000000000000000000000000000600060013
:1041A00006007FFC0600060006000600060006006A
:1041B0000700078401FC0000000000000000000070
:1041C00000000000000000000000000000000000EF
:1041D0000000381C381C381C381C381C381C381C93
:1041E000383C1CFC0FDC0000000000000000000058
:1041F00000000000000000000000000000000000BF
:104200000000700C381C38181C380C300E7006601A
:1042100007E003C003C00000000000000000000031
:10422000000000000000000000000000000000008E
:104230000000600660066186738E73CC33CC366CEA
:10424000366C3C3C3C3800000000000000000000E0
:10425000000000000000000000000000000000005E
:104260000000381C1C380E7007E003C003C007E0D4
:104270000E701C38381E0000000000000000000016
:10428000000000000000000000000000000000002E
:104290000000700C381C38181C380C300E7006608A
:1042A00007E003C003C0038007000E007C0000008D
:1042B00000000000000000000000000000000000FE
:1042C00000001FF80038007000E001C00380070004
:1042D0000C001FFC3FFC000000000000000000007C
:1042E0000000000000000000007801F80380038057
:1042F00003800380038003003F003E00030003802F
:104300000380038003800380038001C000F8000065
:104310000000000001800180018001800180018097
:104320000180018001800180018001800180018085
:1043300001800180018001800180018001800000F6
:1043400000000000000000001E001F80018001C06E
:1043500001C001C001C000C000FC007C00C001C061
:1043600001C001C001C001C001C003801F000000E6
:10437000000000000000000000000000000000003D
:104380000000000000001C003F0671CE60FC000031
:10439000000000000000000000000000000000001D
:1043A000000000000000000000000000000000000D
:1043B00000000000000000000000000000000000FD
:1043C00000000000000000000000000000000000ED
:1043D00000000000000000000000000000000000DD
:1043E00000000000000000000000000000000000CD
:1043F00000000000000000000000000000000000BD
:1044000000000000000000000000000000000000AC
:104410000000003C00003C00003C00003C00003C70
:1044200000003C00003C00003C00003C00003C0060
:10443000003C00003C00003C00003C00000000008C
:104440000000003C00007E00003C00000000000076
:10445000000000000000000000000000000000005C
:10446000000000000000000000000000000000004C
:10447000000003C3E003C3E003C3C003C3C003C31E
:10448000C003C3C003C1C000000000000000000062
:10449000000000000000000000000000000000001C
:1044A000000000000000000000000000000000000C
:1044B00000000000000000000000000000000000FC
:1044C00000000000000000000000000000000000EC
:1044D000000000000000000001E0E001C0E001C0B9
:1044E000E001C0E03FFFFE3FFFFE03C1C00381C00B
:1044F0000381C00381C07FFFFC7FFFFC078380072F
:104500000380070380070380070780000000000086
:10451000000000000000000000000000000000009B
:10452000000000000000000000000000000000008B
:104530000700000F00000E0001FFF007FFF01F0E44
:10454000001E1E001E1C001E1C000FDC0007FC00CD
:1045500000FF80003FF00038F800387800783C0019
:1045600070783071F83FFFE01FFF0000E00000E0CE
:104570000000E0000000000000000000000000005B
:10458000000000000000000000000000000000002B
:1045900000000F800F3FE01E78703C7070707070EC
:1045A000E07071C03FE3801FC700000E00001C00D8
:1045B00000780000F0F001E7FC03CF0E078E0E0F2D
:1045C0000E0E1E0E0E3C07BC7003F800000000002B
:1045D00000000000000000000000000000000000DB
:1045E00000000000000000000000000000000000CB
:1045F000000000000001FF0007FF800F03C00F0351
:10460000C00F03C00F0780079F0003FE0003F000E8
:104610000FF83C3E7C3C3C1F3C780FF87807F87C58
:1046200001F03E03F81FFFFC07FE1F000000000022
:10463000000000000000000000000000000000007A
:10464000000000000000000000000000000000006A
:104650000000003E00003C00003C00003C00003C2C
:1046600000003C00003C00000000000000000000D2
:10467000000000000000000000000000000000003A
:10468000000000000000000000000000000000002A
:10469000000000000000000000000000000000001A
:1046A000000000000000000000000000000000000A
:1046B00000800001C0000780000F00001E00003CC9
:1046C0000000780000F00000E00001E00001E000E0
:1046D00001C00003C00003C00001C00001E00001F0
:1046E000E00000F00000F000007800003C00001E38
:1046F00000000F000007C00001C000000000000023
:1047000000000000000000000000000000000000A9
:10471000000003C00001E00000F000007C00003E4B
:1047200000001E00000F00000780000780000380CB
:104730000003C00003C00003C00003C000038000EA
:104740000780000780000F00001E00003C0000787A
:104750000000F00001E00003800000000000000005
:104760000000000000000000000000000000000049
:104770000000001C00001C000018000F18F007DBF0
:10478000E0007F0000FF0007DBE00E18700018005B
:10479000001C00001C0000000000000000000000E1
:1047A0000000000000000000000000000000000009
:1047B00000000000000000000000000000000000F9
:1047C00000000000000000000000000000000000E9
:1047D00000000000000000000000000000000000D9
:1047E00000003C00003C00003C00003C00003C009D
:1047F000003C003FFFFC3FFFFC003C00003C000091
:104800003C00003C00003C000000000000000000F4
:104810000000000000000000000000000000000098
:104820000000000000000000000000000000000088
:104830000000000000000000000000000000000078
:104840000000000000000000000000000000000068
:104850000000000000000000000000000000000058
:104860007C00007E00007E00003E00001E00003C38
:104870000000F80007E00004000000000000000055
:104880000000000000000000000000000000000028
:104890000000000000000000000000000000000018
:1048A0000000000000000000000000000000000008
:1048B00000000003FFE003FFE00000000000000034
:1048C00000000000000000000000000000000000E8
:1048D00000000000000000000000000000000000D8
:1048E00000000000000000000000000000000000C8
:1048F00000000000000000000000000000000000B8
:1049000000000000000000000000000000000000A7
:104910000000000000000000000000000000000097
:104920007C0000FE0000FE00007E00000000000091
:104930000000000000000000000000000000000077
:104940000000000000000000000000000000000067
:1049500000000000780000F00000E00001E000032B
:10496000C0000380000780000F00000E00001E0042
:10497000003C0000380000700000F00000E0000182
:10498000C00003C0000780000700000F00001E00E9
:10499000001C0000000000000000000000000000FB
:1049A0000000000000000000000000000000000007
:1049B000000000000000000001FFC007FFE00F0042
:1049C000F01E00781E003C3C00FC3C07FC3C1FBC79
:1049D0003C7C1C3DF03C3FC03C3F003C1E00381E70
:1049E00000780F80F007FFE001FF8000000000006A
:1049F00000000000000000000000000000000000B7
:104A000000000000000000000000000000000000A6
:104A10000000000000000000007E0003FE001FDE1A
:104A2000000E1E00001E00001E00001E00001E00E2
:104A3000001E00001E00001E00001E00001E0000E0
:104A40001E00001E000FFFF80FFFF800000000001E
:104A50000000000000000000000000000000000056
:104A60000000000000000000000000000000000046
:104A7000000000000000000003FF800FFFE00E01B7
:104A8000F00000F00000F00000F00000F00001E095
:104A90000003C0000F80003E00007C0001F0000316
:104AA000C0000F80001FFFFC1FFFFC000000000083
:104AB00000000000000000000000000000000000F6
:104AC00000000000000000000000000000000000E6
:104AD00000000000000000000FFF800FFFE0000159
:104AE000E00000F00000F00001E00003C001FF0062
:104AF00001FFC00003F0000078000078000078009B
:104B000000780001F00FFFC00FFF00000000000060
:104B10000000000000000000000000000000000095
:104B20000000000000000000000000000000000085
:104B30000000000000000000000FC0001FC0003F88
:104B4000C0007BC000F3C001E3C003C3C00783C043
:104B50000F03C01C03C03803C07FFFFE7FFFFE00B1
:104B600003C00003C00003C00003C0000000000039
:104B70000000000000000000000000000000000035
:104B80000000000000000000000000000000000025
:104B900000000000000000000FFFE00FFFE00F002A
:104BA000000F00000F00000F00000F00000FFF803B
:104BB0000FFFE00000F000007800007800007800AF
:104BC00000F00003E00FFFC00FFE00000000000037
:104BD00000000000000000000000000000000000D5
:104BE00000000000000000000000000000000000C5
:104BF0000000000000000000003FF001FFF003E0B3
:104C0000000780000F00001E00001E1F001FFFE0B5
:104C10001FC1F81E00781E003C1E003C1E003C0F09
:104C200000780F80F807FFE001FF8000000000001F
:104C30000000000000000000000000000000000074
:104C40000000000000000000000000000000000064
:104C500000000000000000001FFFFC1FFFFC000020
:104C6000780000F00000E00001E00003C0000780D1
:104C7000000F00000F00001E00003C000078000044
:104C8000F00001F00001E00003C00000000000009F
:104C90000000000000000000000000000000000014
:104CA0000000000000000000000000000000000004
:104CB000000000000000000003FFE00FE3F00F0021
:104CC000781E00781E00780F00F007E3E001FF80F7
:104CD00001FF8007E7E00F00F81E00781E003C1E71
:104CE000007C1F00F80FFFF003FFC0000000000071
:104CF00000000000000000000000000000000000B4
:104D000000000000000000000000000000000000A3
:104D1000000000000000000003FF800FC7E01E003D
:104D2000F01E00783C00783C00783C00381E00788B
:104D30000FEFF807FFB80000780000780000F000DF
:104D400001E0000FC00FFF000FF0000000000000A6
:104D50000000000000000000000000000000000053
:104D60000000000000000000000000000000000043
:104D70000000000000000000000000000000000033
:104D800000000000007E00007E00007E0000180091
:104D90000000000000000000000000000000000013
:104DA0003C00007E00007E00003E0000000000008D
:104DB00000000000000000000000000000000000F3
:104DC00000000000000000000000000000000000E3
:104DD00000000000000000000000000000000000D3
:104DE00000000000007E00007E00007E0000180031
:104DF00000000000000000000000000000000000B3
:104E00003E00007E00007F00001F00001E00001E0C
:104E10000000FC0007F0000400000000000000009B
:104E20000000000000000000000000000000000082
:104E30000000000000000000000000000000000072
:104E4000400001E00007C0001F00007E0001F800E4
:104E500003E0000F80000F800003E00000F8000076
:104E60003E00000F800003E00000E00000000000B2
:104E70000000000000000000000000000000000032
:104E80000000000000000000000000000000000022
:104E90000000000000000000000000000000000012
:104EA000000000000000000000000000001FFFF8EC
:104EB0000000000000000000001FFFF81FFFF800C6
:104EC00000000000000000000000000000000000E2
:104ED00000000000000000000000000000000000D2
:104EE00000000000000000000000000000000000C2
:104EF00000000000000000000000000000000000B2
:104F00000007800003E00000F800003E00000F8072
:104F10000003E00000F80001F00007C0001F0000DF
:104F20007C0001F00007C00003000000000000004A
:104F30000000000000000000000000000000000071
:104F40000000000000000000000000000000000061
:104F5000000001C00001FE00007F800007C00001CA
:104F6000E00000F00000F00001F00003E0007FC06E
:104F7000007E000070000070000070000000000063
:104F8000000000F80000F80000F800000000000039
:104F90000000000000000000000000000000000011
:104FA0000000000000000000000000000000000001
:104FB0000000001F8000FFF003C07807801C0E0077
:104FC0000E1C000E3C000F383FC778FFC770E3C7C8
:104FD00071C3C7F3C387E3C387E3878EE3878EE399
:104FE000CF8EE3FFFC71F9F0700000700000380014
:104FF000003C00000F01C007FFC0000000000000DF
:1050000000000000000000000000000000000000A0
:105010000000000000000000007E00007F0000FF94
:105020000000E78001E78003C3C003C3C00781E03D
:105030000781E00F00F00F00F81FFFF81FFFFC3C96
:10504000003C3C001E78001EF0000F000000000035
:105050000000000000000000000000000000000050
:105060000000000000000000000000000000000040
:1050700000000000000000001FFFC01FFFF01E0026
:10508000F01E00781E00781E00F01E01F01FFFC009
:105090001FFFE01E01F81E00781E003C1E003C1E93
:1050A00000781E00F81FFFE01FFF00000000000056
:1050B00000000000000000000000000000000000F0
:1050C00000000000000000000000000000000000E0
:1050D000000000000000000000FFF803FFF807C018
:1050E000000F00001E00001E00003C00003C0000FD
:1050F0003C00003C00003C00003E00001E00000F91
:1051000000000FC00803FFF800FFF80000000000D7
:10511000000000000000000000000000000000008F
:10512000000000000000000000000000000000007F
:1051300000000000000000003FFF003FFFE03C01D6
:10514000F03C00783C003C3C003C3C003C3C001EF9
:105150003C001E3C001E3C003C3C003C3C00783CBB
:1051600000F83C07E03FFFC03FFC000000000000EB
:10517000000000000000000000000000000000002F
:10518000000000000000000000000000000000001F
:1051900000000000000000000FFFF00FFFF00F0004
:1051A000000F00000F00000F00000F00000FFFF0C5
:1051B0000FFFF00F00000F00000F00000F00000FA6
:1051C00000000F00000FFFF00FFFF00000000000D4
:1051D00000000000000000000000000000000000CF
:1051E00000000000000000000000000000000000BF
:1051F00000000000000000000FFFF00FFFF00F00A4
:10520000000F00000F00000F00000F00000FFFF064
:105210000FFFF00F00000F00000F00000F00000F45
:1052200000000F00000F00000F0000000000000051
:10523000000000000000000000000000000000006E
:10524000000000000000000000000000000000005E
:10525000000000000000000000FFFC03FFFC0FC086
:10526000041F00001E00003C00003C0000780FFC02
:10527000780FFC78003C3C003C3C003C3E003C1F6E
:10528000003C0FC03C03FFFC00FFF80000000000E2
:10529000000000000000000000000000000000000E
:1052A00000000000000000000000000000000000FE
:1052B00000000000000000003C003C3C003C3C00C2
:1052C0003C3C003C3C003C3C003C3C003C3FFFFC88
:1052D0003FFFFC3C003C3C003C3C003C3C003C3C78
:1052E000003C3C003C3C003C3C003C00000000001A
:1052F00000000000000000000000000000000000AE
:10530000000000000000000000000000000000009D
:1053100000000000000000000FFFF80FFFF8003C45
:1053200000003C00003C00003C00003C00003C0051
:10533000003C00003C00003C00003C00003C000041
:105340003C00003C000FFFF80FFFF80000000000D9
:10535000000000000000000000000000000000004D
:10536000000000000000000000000000000000003D
:1053700000000000000000000FFFE00FFFE0000150
:10538000E00001E00001E00001E00001E00001E0D8
:105390000001E00001E00001E00001E00001E000A8
:1053A00003C00C07C00FFF8007FE000000000000D4
:1053B00000000000000000000000000000000000ED
:1053C00000000000000000000000000000000000DD
:1053D00000000000000000001E00781E01F01E0307
:1053E000C01E07801E1F001E3C001E78001EF0001D
:1053F0001FF0001EF8001E3C001E1E001E0F801E27
:1054000007C01E01E01E00F81E007C000000000026
:10541000000000000000000000000000000000008C
:10542000000000000000000000000000000000007C
:1054300000000000000000000780000780000780D7
:1054400000078000078000078000078000078000B9
:1054500007800007800007800007800007800007A2
:10546000800007800007FFF807FFF8000000000039
:10547000000000000000000000000000000000002C
:10548000000000000000000000000000000000001C
:1054900000000000000000003E007C3F00FC3F8157
:1054A000DC3B81DC3BC39C39C39C38E71C38EF1CD8
:1054B000387E1C387C1E383C1E78001E78001E7812
:1054C000001E78001E78001E78001E0000000000FC
:1054D00000000000000000000000000000000000CC
:1054E00000000000000000000000000000000000BC
:1054F00000000000000000001F003C1F803C1FC097
:105500003C1DC03C1DE03C1CF03C1C783C1C783C25
:105510001C3C3C1C1E3C1C0F3C1C0F3C1C07BC1CB8
:1055200003FC1C01FC1C00FC1C00FC000000000033
:10553000000000000000000000000000000000006B
:10554000000000000000000000000000000000005B
:10555000000000000000000001FFC007FFF00F0086
:10556000F81E007C3C003C3C001E78001E78001EAB
:1055700078001E78001E78001E3C003C3C003C1E5B
:1055800000781F00F007FFE001FF8000000000002E
:10559000000000000000000000000000000000000B
:1055A00000000000000000000000000000000000FB
:1055B00000000000000000001FFF801FFFF01E0021
:1055C000F81E007C1E003C1E003C1E003C1E0078A5
:1055D0001E03F01FFFC01FFE001E00001E00001E65
:1055E00000001E00001E00001E0000000000000061
:1055F00000000000000000000000000000000000AB
:10560000000000000000000000000000000000009A
:10561000000000000000000001FFC007FFF00F00C5
:10562000F81E007C3C003C3C001E78001E78001EEA
:1056300078001E78001E78001E3C003C3C003C1E9A
:1056400000781F80F007FFE001FF80003C00003C75
:1056500000001F06000FFF0001F80000000000001E
:10566000000000000000000000000000000000003A
:1056700000000000000000000FFF800FFFE00E019F
:10568000F00E00F00E00F00E00F00E01F00FFFC063
:105690000FFF000E1F000E07800E03C00E01E00E6C
:1056A00000F00E00F80E00780E003C000000000034
:1056B00000000000000000000000000000000000EA
:1056C00000000000000000000000000000000000DA
:1056D000000000000000000003FFF00FFFF01F00BB
:1056E000001E00001E00001F00000FC00007FC008D
:1056F00000FF80000FF00001F80000780000780043
:1057000000782000F83FFFE03FFF8000000000002D
:105710000000000000000000000000000000000089
:105720000000000000000000000000000000000079
:1057300000000000000000003FFFFC3FFFFC003CB9
:1057400000003C00003C00003C00003C00003C002D
:10575000003C00003C00003C00003C00003C00001D
:105760003C00003C00003C00003C00000000000049
:105770000000000000000000000000000000000029
:105780000000000000000000000000000000000019
:1057900000000000000000003C003C3C003C3C00DD
:1057A0003C3C003C3C003C3C003C3C003C3C003C65
:1057B0003C003C3C003C3C003C3C003C3C003C1E73
:1057C00000781F00F80FFFE003FF800000000000DA
:1057D00000000000000000000000000000000000C9
:1057E00000000000000000000000000000000000B9
:1057F0000000000000000000F8000F78001E3C00D0
:105800001E3C003C1E00381E00780F00700F00F098
:105810000781E00781E003C3C003E3C001E7800024
:10582000F78000FF00007E00007E00000000000006
:105830000000000000000000000000000000000068
:105840000000000000000000000000000000000058
:10585000000000000000000078000E78000E7800C4
:105860000E78001E38001E38001E383C1C383C1CC8
:10587000387E1C387F1C3CE71C3CE79C3DC39C1DCC
:10588000C3DC1F81DC1F80F81F00F800000000004F
:105890000000000000000000000000000000000008
:1058A00000000000000000000000000000000000F8
:1058B00000000000000000003C003C1E00780F00CB
:1058C000F00781E003C3C001E78000FF00007E0015
:1058D000007E0000FF0001FF8003E7C007C3E00F68
:1058E00081F01F00F83E007C7C003E0000000000BC
:1058F00000000000000000000000000000000000A8
:105900000000000000000000000000000000000097
:10591000000000000000000078001F3C003E1E0058
:105920007C1F00780F80F007C1E003E3C001E7802F
:1059300000FF00007E00003C00003C00003C000036
:105940003C00003C00003C00003C00000000000067
:105950000000000000000000000000000000000047
:105960000000000000000000000000000000000037
:1059700000000000000000001FFFFC1FFFFC0000F3
:10598000F80001E00003C0000780000F00001E00C7
:10599000003C0000780000F00003E00007C0000FAA
:1059A00080001F00003FFFFC3FFFFC0000000000E4
:1059B00000000000000000000000000000000000E7
:1059C00000000000000000000000000000000000D7
:1059D000000001FFC001FFC001E00001E00001E0A4
:1059E0000001E00001E00001E00001E00001E00052
:1059F00001E00001E00001E00001E00001E0000141
:105A0000E00001E00001E00001E00001E00001E051
:105A10000001E00001E00001FFC000000000000004
:105A20000000000000000000000000000000000076
:105A300000000E00000F000007000003800003C0FC
:105A40000001E00000E00000F000007800003800F5
:105A5000003C00001E00000E00000F000007800048
:105A600003800001C00001E00000E00000700000C1
:105A70007800003C00000000000000000000000072
:105A80000000000000000000000000000000000016
:105A9000000003FF8003FF800007800007800007ED
:105AA00080000780000780000780000780000780D3
:105AB0000007800007800007800007800007800043
:105AC000078000078000078000078000078000072C
:105AD0008000078000078003FF80000000000000B6
